:1000000012C02CC02BC069C11CC128C027C026C08B
:1000100025C024C023C022C021C020C08CC11EC066
:100020001DC01CC01BC011241FBECFE5D4E0DEBF25
:10003000CDBF11E0A0E6B0E0E2EFF4E102C0059030
:100040000D92A031B107D9F711E0A0E1B1E001C0F4
:100050001D92A734B107E1F798D549CAD1CFFB016A
:100060009F01E8944230BCF04532ACF44A3029F4A8
:1000700097FB1EF4909581959F4F642F7727E6D9C3
:10008000805D8A330CF0895D8193CB010097A9F7DD
:1000900016F45DE251931082C90100C0DC01FC013D
:1000A000672F71917723E1F7329704C07C916D93AC
:1000B00070836291AE17BF07C8F30895CF93DF93A3
:1000C00061D180E690E0F3D288E790E0F0D202D4EC
:1000D00083E890E0ECD281E0ABD2C0E0D0E0DBD4AA
:1000E00021968EEFC030D807D1F780E0A1D28FE8FB
:1000F00090E0DDD2C0E0D0E0EED421968EEFC030AB
:10010000D807D1F73FD180E093D28DE990E0CFD2EC
:1001100081E0A1D2C0E0D0E09ED421968FEFC03F15
:10012000D807D1F780E084D280E095D28EEA90E0C3
:10013000BED281E061E098D28AD480E060E094D2BF
:100140008BEB90E0B4D2F9D4DF91CF910895CF93A7
:10015000DF9334B125B1922F80E0232F30E0282B9C
:10016000392BA0911001B0911101BD01660F771FCD
:10017000FB01E05EFE4F318320838091300190913E
:100180003101892BC9F1A230B105B4F5232F3327F2
:10019000FB01EE5EFE4F40815181C901841B950B2E
:1001A0009595879595958795840F951F9183808365
:1001B000EB01CB5FDE4F48815981281B390B249F0F
:1001C000C001259F900D349F900D1124039744F199
:1001D000E1E0F0E0EA27FB27EE0FFF1FEE5CFE4FA9
:1001E0008081918101969183808388279927841B40
:1001F000950B9983888314C0A430B10589F480914C
:100200002C0190912D01892B29F480E090E0205859
:100210003C4F10F481E090E090932D0180932C01ED
:10022000FD01E75FFE4F808187B9CD01019666E051
:1002300070E00CD99093110180931001DF91CF9160
:1002400008951F920F920FB60F9211242F933F9390
:100250004F935F936F937F938F939F93AF93BF93CE
:10026000EF93FF9384B58B5D84BD809136018F5FE2
:100270008093360180913601882399F48091390169
:1002800090913A01A0913B01B0913C010196A11DD2
:10029000B11D8093390190933A01A0933B01B09333
:1002A0003C018091370190913801892B29F0E09130
:1002B0003701F09138010995FF91EF91BF91AF910E
:1002C0009F918F917F916F915F914F913F912F916E
:1002D0000F900FBE0F901F9018951F920F920FB6A0
:1002E0000F9211248F939F93AF93BF938091360108
:1002F0008F5F8093360180913601882399F4809135
:10030000390190913A01A0913B01B0913C010196D5
:10031000A11DB11D8093390190933A01A0933B0137
:10032000B0933C01BF91AF919F918F910F900FBE01
:100330000F901F9018951F920F920FB60F921124D5
:100340002F933F934F935F936F937F938F939F93DD
:10035000AF93BF93EF93FF93E0912E01F0912F01A4
:100360000995FF91EF91BF91AF919F918F917F91EF
:100370006F915F914F913F912F910F900FBE0F9012
:100380001F90189589E785BD89B7806489BF81E989
:1003900083BD10BC8FEC89B988E18AB986E880BD3D
:1003A0008FE387BB8CEF81BB81EA8FBD82E08EBD7E
:1003B00080E051D181E061E057D180E060E054D12C
:1003C00081E036D1939A80E260E268D180E060E01B
:1003D0005ED11092310110923001109238011092CA
:1003E000370187EA90E090932F0180932E0184B328
:1003F0008C7F84BB979A81E687B98FEE86B9789413
:1004000008950F931F938C0184B38C7F84BB979ABC
:1004100081E090E060E070E024D0F8019183808377
:1004200080E090E060E070E01CD0F801938382836C
:100430001F910F9108950F931F938C0183E090E01B
:1004400060E070E00ED0F8019183808382E090E05C
:1004500060E070E006D0F801938382831F910F91D2
:100460000895CF93DF93EC016115710511F0862F8C
:10047000DFD1F894CC0FDD1FC05EDE4F28813981BB
:10048000789486E0369527958A95E1F7C901DF9142
:10049000CF9108958F929F92AF92BF92CF92DF92A9
:1004A000EF92FF920F931F93CF93DF93EC018B0199
:1004B0006A0180E060E0EBD0209701F19E01D7FF58
:1004C00004C0222733272C1B3D0BB901882777FD59
:1004D0008095982F20E137E240E050E098D723EA5A
:1004E0003BE440E050E0C6D7C901DA014C015D01B0
:1004F000D7FF02C080E122C080E21DC0980117FF33
:1005000004C022273327201B310BB901882777FD30
:100510008095982F21EB30E040E050E078D728E636
:1005200031E040E050E0A6D7C901DA014C015D019D
:1005300017FF03C080E160E202C080E260E1AED05C
:1005400080E090E060E070E06AD08C2D6C2D9FD050
:100550008601E601EE24FF2434C04091320150911F
:100560003301209132013091330180913401909117
:100570003501281B390B1216130654F4C016D10688
:100580001CF0C53FD1051CF00A50104001C02A964E
:1005900037FF0AC0CC16DD061CF0053F110514F02C
:1005A0002A9702C0065F1F4FE40EF51E80E090E020
:1005B00060E070E034D0802F6C2F69D081E090E053
:1005C0003FD1C701AA2797FDA095BA2F8815990595
:1005D000AA05BB0510F280E060E060D088EC90E0F6
:1005E0002FD1DF91CF911F910F91FF90EF90DF906E
:1005F000CF90BF90AF909F908F900895F89481E036
:1006000090E0909331018093300110923301109269
:10061000320110923501109234017894089590932C
:100620003301809332017093350160933401089552
:10063000882311F4C09803C0813019F4C09A9298AD
:100640000895833019F4C09A929A0895823011F473
:10065000C098929A089592B38295880F880F807CF3
:100660009F7B982B92BB0895982F882311F46623C3
:1006700049F0979884B3836084BB85B3836085BB5E
:10068000992309F4A998662309F4A898089590E09D
:100690009BBD8ABD70E079BD68BD089592B39F7C13
:1006A000982B92BB88B38F7C862B88BB089520E063
:1006B00038E009C03AB95E9A5D9BFECFECB95E9B0B
:1006C000FECF2F5F1AB8FC01E20FF11DE081EE238F
:1006D00089F7089580911801882309F45EC08091FC
:1006E000360190E087709070892B09F056C050B3A6
:1006F00050955170809119018F3F19F08F5F809351
:10070000190180911A01909119018517A1F1943076
:1007100008F43FC040911B01442391F4513059F437
:100720009B3F48F081E090E090931D0180931C0175
:1007300050931B011DC010921D0110921C0118C086
:10074000963048F19B3090F4252F30E080911C01C9
:1007500090911D01880F991F282B392B30931D0173
:1007600020931C014F5F40931B0102C010921B019C
:100770001092190110C09B3070F080911B018E30D7
:1007800041F480911C0190911D0190931701809379
:10079000160110921B0150931A0108952091160121
:1007A000309117011092170110921601C901089596
:1007B00081B381BB82B382BB81E0809318018AE65A
:1007C00093E090933801809337010895F894109244
:1007D0002D0110922C017894089580912C01909114
:1007E0002D01892B11F184E090E06FE070E039DE9B
:1007F00023E0823F9207C8F49C0140E050E060E0B3
:1008000070E48CE990E058D6CA01B9012EE330E0DB
:1008100040E050E0FCD5685572468940904020E1A8
:1008200037E240E050E048D601C020E0822F089532
:1008300090913601980F809136018917E1F708955C
:10084000BC0120E030E009C0409136014C5D809150
:1008500036018417E1F72F5F3F4F26173707A4F3C0
:10086000089528E02AB9FC0105C05D9BFECF819167
:100870008CB961506623C9F75E9BFECF5E9A539890
:100880000895FC0180E18AB94115510511F490E009
:100890001EC0DF0170E005C05F9B07C08CB18D9367
:1008A0007F5F7617B0F420E030E02F5F3F4FC90143
:1008B00001978417950780F34217530750F484E596
:1008C000808308955F9BFECF8CB181939F5F9617C5
:1008D000C8F3089581E0ACDE80E060E0C5DE80E032
:1008E000BADE88EB9BE0ACDF82E0A2DE88EB9BE027
:1008F000A7DF80E09DDE81E0AEDE88EB9BE0A0DF3D
:1009000081E060E0B1DE80E0A6DE88EB9BE098DF6E
:1009100080E061E0A9DE88EB9BE092DF81E061E0AE
:10092000A3DE83E085DE81E096DE88EB9BE088DF56
:1009300080E060E099DE80E07BDE80E08CDE089580
:100940001F9380E260E2AADE10E0812F612F9FDE1C
:100950008AE090E075DF1F5F1F3FB9F7812F612F9D
:1009600096DE8AE090E06CDF1150C1F780E160E133
:1009700095DE812F612F8BDE8AE090E061DF1F5FC3
:100980001F3FB9F7812F612F82DE8AE090E058DFA8
:100990001150C1F780E060E07ADE1F9108951F9347
:1009A00080E260E07BDE10E08AE090E049DF812FAA
:1009B00060E06DDE1F5F1F3FB9F7812F60E067DEEB
:1009C0008AE090E03DDF1150C1F780E160E066DE33
:1009D000812F60E05CDE8AE090E032DF1F5F1F3F26
:1009E000B9F7812F60E053DE8AE090E029DF1150F3
:1009F000C1F71F9108951F9380E060E24FDE10E081
:100A000080E0612F44DE8AE090E01ADF1F5F1F3F25
:100A1000B9F780E0612F3BDE8AE090E011DF1150F2
:100A2000C1F780E060E13ADE80E0612F30DE8AE0ED
:100A300090E006DF1F5F1F3FB9F780E0612F27DEE0
:100A40008AE090E0FDDE1150C1F71F910895A7DF05
:100A5000D2DF76DF0895DF93CF9300D000D0CDB7FB
:100A6000DEB7CE010196CDDC80E0E2DD89819A819E
:100A70008050924010F481E0DBDD8B819C818050BE
:100A8000924010F482E0D4DD0F900F900F900F9001
:100A9000CF91DF910895DF93CF9300D000D0CDB7F1
:100AA000DEB7CE010196C7DC20E089819A818159A9
:100AB000914008F021E060E08B819C818159914058
:100AC00008F061E0822FD0DD0F900F900F900F9013
:100AD000CF91DF9108951F9380E260E0DFDD7DDE3E
:100AE000182F882329F180E0A3DD80E0B4DD80E0C9
:100AF00060E0BADD80E060E0CADD10FF03C088EC92
:100B000060E0C5DD11FD02C060E004C080E061E08E
:100B1000ABDD61E012FF02C081E0A6DD13FF02C081
:100B200081E099DD14FD929A15FF05C0C09A03C0BB
:100B30008AE090E085DE1F910895EF92FF921F9367
:100B4000DF93CF930F92CDB7DEB710E07E0108940C
:100B5000E11CF11C81E06CDDC70161E04EEF5FEF4D
:100B600090DE82E065DD8981843511F08F5F8983B5
:100B7000C70161E076DE1F5F1E3F61F70F90CF91E6
:100B8000DF911F91FF90EF900895FCDB26DE882314
:100B900021F023DE8823E9F702D090DAF7CFF2DBE9
:100BA00089EC90E084DD19DE813011F40DD0FBCFAB
:100BB000823011F40ED4F7CF843011F41FD3F3CF69
:100BC000883089F744D1EFCF0F931F93CF93DF93F2
:100BD000D9DB84ED90E06BDD81E03DDD10E083E466
:100BE00091E029DC1F5F1F3FD1F783E491E023DC14
:100BF000809143019091440120914501309146013B
:100C0000821B930B90934201809341018FE890E007
:100C100090933E0180933D019093400180933F016A
:100C20000FE810E0CFEFD0E083E491E004DC209106
:100C30004301309144018091450190914601281B68
:100C4000390B8091410190914201281B390B2530CD
:100C500031059CF081E0ECDC80913F0190914001F6
:100C600001969093400180933F018F3F91052CF1B5
:100C7000D0934001C0933F0120C02C5F3F4F9CF4B4
:100C800082E0D6DC80913D0190913E0101969093E7
:100C90003E0180933D018F3F91057CF0D0933E0152
:100CA000C0933D010AC080E0C3DC10933E01009375
:100CB0003D011093400100933F0180913F016091FD
:100CC0003D01E5DC8ADD882309F4AECFDF91CF91C9
:100CD0001F910F9108951092400110923F011092C0
:100CE0003E0110923D0180E0B6DC80E060E0BCDCBB
:100CF000089580913F0190914001059690934001A5
:100D000080933F01CF96CF9730F481E090E09093AD
:100D1000400180933F0180913D0190913E010597F4
:100D200090933E0180933D010197CF9730F48FEF70
:100D30009FEF90933E0180933D0180E08CDC80E04A
:100D400061E092DC089580913F0190914001059708
:100D50009093400180933F010197CF9730F48FEF3C
:100D60009FEF9093400180933F0180913D019091CE
:100D70003E01059690933E0180933D01CF96CF971B
:100D800030F481E090E090933E0180933D0180E05B
:100D900062DC81E060E068DC089580913D01909123
:100DA0003E01059790933E0180933D0120913F01C4
:100DB00030914001255030403093400120933F0155
:100DC0000197CF9730F48FEF9FEF90933E01809380
:100DD0003D01215030402F33310530F48FEF9FEF2C
:100DE0009093400180933F0180E035DC81E061E039
:100DF0003BDC089520913D0130913E012B5F3F4F38
:100E000030933E0120933D0180913F01909140013C
:100E100005969093400180933F01CF96CF9730F491
:100E200081E090E09093400180933F01215C3F4F2F
:100E30002F33310530F481E090E090933E018093B0
:100E40003D0181E008DC80E060E00EDC0895CF9297
:100E5000DF92EF92FF920F931F93DF93CF93CDB763
:100E6000DEB727970FB6F894DEBF0FBECDBF8ADA84
:100E70009FDC8FED90E01BDC6E010894C11CD11C3F
:100E80008FEFE82EF12C01E01FEF88DC90931F011B
:100E900080931E01009709F46CC08F73907190933A
:100EA0001F0180931E01B60140E150E0D8D8C60171
:100EB000FEDB8AEE90E0FBDB80911E0190911F012A
:100EC00020E18031920709F43FC050E1813195075C
:100ED000C8F420E186309207B9F150E187309507D8
:100EE00048F420E18230920759F18450904109F092
:100EF00040C028C020E18830920701F18C50904119
:100F0000C1F526C020E181329207C1F050E1823262
:100F1000950740F420E181319207A1F08052904181
:100F200041F50EC020E18932920781F050E18D3306
:100F3000950771F085529041E1F408C02EDF19C089
:100F400059DF17C000DF15C0D4DE13C0C4DE11C0E6
:100F500080E090E027960FB6F894DEBF0FBECDBFBD
:100F6000CF91DF911F910F91FF90EF90DF90CF9085
:100F7000089520913F0130914001C9010197CE971A
:100F800030F4215C3F4F3093400120933F0120918A
:100F90003F0130914001C901CE96CE9730F42F53D6
:100FA00030403093400120933F0120913D0130912A
:100FB0003E01C9010197CE9730F4215C3F4F309339
:100FC0003E0120933D0120913D0130913E01C90138
:100FD000CE96CE9730F42F53304030933E0120937D
:100FE0003D0180913F019091400197FF02C040E197
:100FF00001C040E220913D0130913E0137FF02C027
:1010000060E101C060E28F3F910529F024F0F09289
:101010004001E0923F0180913F0190914001815059
:101020009F4F24F41093400100933F012F3F31055F
:1010300029F024F0F0923E01E0923D0180913D01C3
:1010400090913E0181509F4F24F410933E010093F4
:101050003D01842F23DB80913F019091400197FF58
:1010600003C0909581959F4F60913D0170913E0125
:1010700077FF03C0709561957F4F09DB84E690E0B0
:10108000DFDB03CF1092400110923F0110923E012E
:1010900010923D0180E0DFDA80E060E0E5DA08955B
:1010A00080913F019091400105969093400180937B
:1010B0003F01CF96CF9730F481E090E090934001CC
:1010C00080933F0180913D0190913E01059790935F
:1010D0003E0180933D010197CF9730F48FEF9FEF52
:1010E00090933E0180933D0180E0B5DA80E061E0BD
:1010F000BBDA089580913F0190914001059790934C
:10110000400180933F010197CF9730F48FEF9FEF1D
:101110009093400180933F0180913D0190913E0169
:10112000059690933E0180933D01CF96CF9730F482
:1011300081E090E090933E0180933D0180E08BDA66
:1011400081E060E091DA089580913D0190913E0147
:10115000059790933E0180933D0120913F0130918E
:101160004001255030403093400120933F010197CA
:10117000CF9730F48FEF9FEF90933E0180933D0126
:10118000215030402F33310530F48FEF9FEF909393
:10119000400180933F0180E05EDA81E061E064DA43
:1011A000089520913D0130913E012B5F3F4F3093D8
:1011B0003E0120933D0180913F01909140010596B1
:1011C0009093400180933F01CF96CF9730F481E018
:1011D00090E09093400180933F01215C3F4F2F337B
:1011E000310530F481E090E090933E0180933D0121
:1011F00081E031DA80E060E037DA0895CF92DF9263
:10120000EF92FF920F931F93DF93CF930F92CDB77F
:10121000DEB7B8D88DEE90E04ADAD8DA78946E016D
:101220000894C11CD11C8FEFE82EF12C01E01FEFB8
:101230001982C60161E04EEF5FEF23DB89818433C1
:1012400099F0853330F48B3109F4B9C0823389F4D5
:1012500007C0863359F0863358F0883351F402C002
:1012600073DF07C09EDF05C045DF03C019DF01C083
:1012700009DF20913F0130914001C9010197CE97CC
:1012800030F4215C3F4F3093400120933F01209187
:101290003F0130914001C901CE96CE9730F42F53D3
:1012A00030403093400120933F0120913D01309127
:1012B0003E01C9010197CE9730F4215C3F4F309336
:1012C0003E0120933D0120913D0130913E01C90135
:1012D000CE96CE9730F42F53304030933E0120937A
:1012E0003D0180912C0190912D01892BD1F010921C
:1012F000400110923F0110923E0110923D01109268
:101300002D0110922C0180E160E1C8D988EC68ECD5
:10131000BED981E0A0D981E061E0A6D988EE93E052
:101320008FDA80913F019091400197FF02C040E128
:1013300001C040E220913D0130913E0137FF02C0E3
:1013400060E101C060E28F3F910529F024F0F09246
:101350004001E0923F0180913F0190914001815016
:101360009F4F24F41093400100933F012F3F31051C
:1013700029F024F0F0923E01E0923D0180913D0180
:1013800090913E0181509F4F24F410933E010093B1
:101390003D01842F83D980913F019091400197FFB7
:1013A00003C0909581959F4F60913D0170913E01E2
:1013B00077FF03C0709561957F4F69D939CF0F9042
:1013C000CF91DF911F910F91FF90EF90DF90CF9021
:1013D0000895CF93DF93D6D711D986EF90E067D9E0
:1013E000C0E0D0E088EC90E060E070E048EC50E0D5
:1013F00051D880E090E06AE570E048EC50E04AD8CF
:101400002196C430D10571F7DF91CF910895629F85
:10141000D001739FF001829FE00DF11D649FE00DEC
:10142000F11D929FF00D839FF00D749FF00D659F4D
:10143000F00D9927729FB00DE11DF91F639FB00D4C
:10144000E11DF91FBD01CF0111240895AA1BBB1B8B
:1014500051E107C0AA1FBB1FA617B70710F0A61BB4
:10146000B70B881F991F5A95A9F780959095BC01D5
:10147000CD010895A1E21A2EAA1BBB1BFD010DC0D0
:10148000AA1FBB1FEE1FFF1FA217B307E407F50734
:1014900020F0A21BB30BE40BF50B661F771F881F10
:1014A000991F1A9469F760957095809590959B01A6
:1014B000AC01BD01CF01089597FB092E05260ED082
:1014C00057FD04D0D7DF0AD0001C38F45095409562
:1014D000309521953F4F4F4F5F4F0895F6F7909508
:1014E0008095709561957F4F8F4F9F4F0895F89429
:0214F000FFCF2C
:1014F2000A0D2D2D20415355524F205465737469A6
:101502006E67202D2D0A0D004C45442054657374DE
:101512000A0D004C696E6520546573740A0D005300
:10152200776974636820546573740A0D004F646FA1
:101532006D657472696520546573740A0D004D6F90
:10154200746F7220546573740A0D00536572696179
:101552006C20546573740A0D0044656D6F4D6F64A1
:10156200650D0A004C696E6544656D6F0D0A005287
:10157200433520546573740D0A000D0A005043442C
:10158200656D6F0D0A00526563687465636B44652F
:101592006D6F0D0A0001000100626364E560610085
:00000001FF
