:1000000012C02CC022C1F3C0A6C028C027C026C081
:1000100025C024C023C022C021C020C02DC11EC0C5
:100020001DC01CC01BC011241FBECFE5D4E0DEBF25
:10003000CDBF10E0A0E6B0E0E4E4F4E002C005903B
:100040000D92A036B107D9F710E0A0E6B0E001C0EC
:100050001D92AB37B107E1F702D0F2C1D1CF0F93B8
:100060001F93CF93DF9335D181E0B6D110E086E6C0
:1000700090E065D11F5F1F3FD1F786E690E05FD12A
:10008000809166009091670020916800309169002E
:10009000821B930B90936500809364008FE890E03F
:1000A000909361008093600090936300809362005E
:1000B0000FE810E0CFEFD0E086E690E040D120914D
:1000C0006600309167008091680090916900281B5C
:1000D000390B8091640090916500281B390B253005
:1000E00031059CF081E065D18091620090916300C0
:1000F000019690936300809362008F3F91052CF1ED
:10010000D0936300C093620020C02C5F3F4F9CF4EB
:1001100082E04FD1809160009091610001969093B0
:100120006100809360008F3F91057CF0D093610067
:10013000C09360000AC080E03CD11093610000933E
:1001400060001093630000936200809162006091F0
:1001500060005ED1B1CF1F920F920FB60F921124A3
:100160002F933F934F935F936F937F938F939F93BF
:10017000AF93BF93EF93FF9384B58B5D84BD809164
:1001800074008F5F8093740080917400882399F4C9
:100190008091770090917800A0917900B0917A00D9
:1001A0000196A11DB11D8093770090937800A093D4
:1001B0007900B0937A008091750090917600892B38
:1001C00029F0E0917500F09176000995FF91EF918B
:1001D000BF91AF919F918F917F916F915F914F915F
:1001E0003F912F910F900FBE0F901F9018951F9267
:1001F0000F920FB60F9211248F939F93AF93BF93DB
:10020000809174008F5F80937400809174008823C4
:1002100099F48091770090917800A0917900B09145
:100220007A000196A11DB11D80937700909378000C
:10023000A0937900B0937A00BF91AF919F918F9175
:100240000F900FBE0F901F9018951F920F920FB630
:100250000F9211248F939F9381E090E090936B0015
:1002600080936A008BB78F778BBF9F918F910F9090
:100270000FBE0F901F9018951F920F920FB60F92FE
:1002800011242F933F934F935F936F937F938F939B
:100290009F93AF93BF93EF93FF9380916C009091E6
:1002A0006D00892B29F0E0916C00F0916D000995AB
:1002B000FF91EF91BF91AF919F918F917F916F913E
:1002C0005F914F913F912F910F900FBE0F901F9014
:1002D000189589E785BD89B7806489BF81E983BDA9
:1002E00010BC8FEC89B988E18AB996E890BD8FE39C
:1002F00087BB84EF81BB81EA8FBD82E08EBD96B95A
:10030000979880E069D081E061E06FD080E060E0A4
:100310006CD081E04ED080E260E281D080E060E08D
:1003200077D010926F0010926E00109276001092AB
:10033000750010926D0010926C0078940895EF9201
:10034000FF920F931F938C01E0906E00F0906F006E
:1003500010926F0010926E0083E090E060E070E019
:1003600014D0F8019183808382E090E060E070E037
:100370000CD0F80193838283F0926F00E0926E00BC
:100380001F910F91FF90EF9008958530910511F422
:1003900085EC01C0806487B96115710511F0862F65
:1003A00047D0369A349BFECF349A24B135B1C90177
:1003B0000895882311F4C09803C0813019F4C09ABD
:1003C00092980895833019F4C09A929A08958230D1
:1003D00011F4C098929A089592B38295880F880F6D
:1003E000807C9F7B982B92BB0895982F882311F4D3
:1003F000662349F0979884B3836084BB85B3836098
:1004000085BB992309F4A998662309F4A89808954F
:1004100090E09BBD8ABD70E079BD68BD089592B340
:100420009F7C982B92BB88B38F7C862B88BB0895CA
:1004300090917400980F809174008917E1F70895E6
:04044000F894FFCF5E
:00000001FF
