:1000000012C02CC031C102C1B5C028C027C026C053
:1000100025C024C023C022C021C020C03CC11EC0B6
:100020001DC01CC01BC011241FBECFE5D4E0DEBF25
:10003000CDBF10E0A0E6B0E0E2EEF7E002C0059030
:100040000D92AC3CB107D9F710E0ACECB0E001C0C8
:100050001D92A03EB107E1F731D0C1C3D1CFFB0162
:100060009F01E8944230BCF04532ACF44A3029F4A8
:1000700097FB1EF4909581959F4F642F772788D327
:10008000805D8A330CF0895D8193CB010097A9F7DD
:1000900016F45DE251931082C90100C0DC01FC013D
:1000A000672F71917723E1F7329704C07C916D93AC
:1000B00070836291AE17BF07C8F3089519D14ED16E
:1000C000E1D280E690E060E06BD28CED95E04FD31A
:1000D0008CED95E04CD381E0D2D14DD283E060E04D
:1000E0004BE650E0A0D28CED95E041D344D280E0C5
:1000F00061E046E750E097D28CED95E038D33BD2F3
:1001000081E061E04FE750E08ED28CED95E02FD397
:1001100032D280E060E04FE850E085D289E060E0D4
:100120002FD28AE090E061D28CED95E020D323D2EB
:1001300080E060E048E950E080D28CED95E017D394
:100140001AD282E060E04DE950E077D28CED95E084
:100150000ED311D281E060E044EA50E06ED28CED23
:1001600095E005D308D280E060E00AD28AEA90E008
:1001700061E0AACF1F920F920FB60F9211242F9316
:100180003F934F935F936F937F938F939F93AF931F
:10019000BF93EF93FF9384B58B5D84BD8091D900AD
:1001A0008F5F8093D9008091D900882399F4809142
:1001B000DC009091DD00A091DE00B091DF0001969F
:1001C000A11DB11D8093DC009093DD00A093DE00A3
:1001D000B093DF008091DA009091DB00892B29F049
:1001E000E091DA00F091DB000995FF91EF91BF916A
:1001F000AF919F918F917F916F915F914F913F91BF
:100200002F910F900FBE0F901F9018951F920F9275
:100210000FB60F9211248F939F93AF93BF9380914A
:10022000D9008F5F8093D9008091D900882399F4F9
:100230008091DC009091DD00A091DE00B091DF00A4
:100240000196A11DB11D8093DC009093DD00A09369
:10025000DE00B093DF00BF91AF919F918F910F901F
:100260000FBE0F901F9018951F920F920FB60F920E
:1002700011248F939F9381E090E09093D00080931E
:10028000CF008BB78F778BBF9F918F910F900FBE51
:100290000F901F9018951F920F920FB60F92112476
:1002A0002F933F934F935F936F937F938F939F937E
:1002B000AF93BF93EF93FF938091D1009091D200C1
:1002C000892B29F0E091D100F091D2000995FF919E
:1002D000EF91BF91AF919F918F917F916F915F91BE
:1002E0004F913F912F910F900FBE0F901F90189537
:1002F00089E785BD89B7806489BF81E983BD10BC6A
:100300008FEC89B988E18AB996E890BD8FE387BB05
:1003100084EF81BB81EA8FBD82E08EBD96B997984C
:1003200080E0F9D181E061E0FFD180E060E0FCD1C4
:1003300081E0DED180E260E211D280E060E007D2AD
:100340001092D4001092D3001092DB001092DA00C9
:100350001092D2001092D10078940895A29AA39A94
:10036000AA9AAB9A089527E030E0482F50E0CA01DE
:10037000022E02C0959587950A94E2F780FF02C08D
:10038000AA9A01C0AA980000000000000000000026
:1003900000000000000000000000AB9A0000000018
:1003A000000000000000000000000000000000004D
:1003B000AB98215030408FEF2F3F3807C1F6AA9AF3
:1003C000A2980000000000000000000000000000F3
:1003D000000000000000AB9A83B3000000000000A2
:1003E0000000000000000000000000000000AB98CA
:1003F000A29A0000000000000000000000000000C1
:100400000000000000008695869580958170089513
:10041000AA9800000000000000000000AB98A3DFD5
:100420000895AA98000000000000000000000000ED
:100430000000000000000000AB9A00000000000077
:1004400000000000AA9A0000000000000000000068
:100450000000000000000000000008959091CC0012
:10046000813011F4962B02C0609596239093CC00B6
:1004700080E4CEDF8091CC0076DFD3DF089568E0A2
:10048000EDDF0895EF92FF920F931F93E82E182F40
:10049000107F80E060EFE2DF81E0612FDFDF81E04D
:1004A00064E0DCDF81E090E062D180E064E0D6DFF0
:1004B000FF24870104701070159507951595079511
:1004C00056E0000F111F5A95E1F7C7018270907036
:1004D0009595879535E0880F991F3A95E1F7082B98
:1004E000C7018170907024E0880F991F2A95E1F769
:1004F000082B88E0E822FF2493E0F594E7949A958E
:10050000E1F7F694FE2CEE24F794E7940E2980E0B0
:1005100060EFA4DF81E0602FA1DF81E064E09EDF77
:1005200081E090E024D180E064E098DF81E090E019
:100530001ED11F910F91FF90EF9008951F93182FD8
:1005400081E061E08BDF812F9DDF8091CE008F5FA6
:100550008093CE001F9108951F93182F823021F4AD
:100560001092CE001092CD0080E061E077DF812F05
:1005700089DF1F91089581E0EFDF82E0EDDF0895CC
:100580008093CE006093CD00662329F0613011F096
:1005900060E001C060E4680F862F8068DDDF0895A9
:1005A000EF92FF920F931F93CF93DF937C01062F5F
:1005B00010E00EC08091CE00883038F0002371F03A
:1005C0006091CD006F5F80E0DBDF8881B7DF1F5F68
:1005D000E701C10FD11D8881882361F7DF91CF9199
:1005E0001F910F91FF90EF9008950F931F93DF934A
:1005F000CF9300D000D000D0CDB7DEB78E010F5F13
:100600001F4FB8014AE050E02ADDC80160E0C8DFB2
:1006100026960FB6F894DEBF0FBECDBFCF91DF9107
:100620001F910F9108950F931F938A01A9DFC801AD
:1006300060E0B6DF1F910F9108951F93782F162F5A
:100640009A0190E001C09F5F492F50E0F901E40F4B
:10065000F51F80818823B9F7713019F488E0891B70
:100660000CC0723049F488E090E0841B950B62E086
:1006700070E0A2D0862F01C080E0612FA901D3DFF6
:100680001F910895EF92FF921F93DF93CF9300D0B5
:10069000CDB7DEB788E289831A8280E064E0DEDECF
:1006A00081E090E064D083E357DF82E355DF10E020
:1006B0007E010894E11CF11C02C04EDF1F5FF701B0
:1006C000E10FF11D80818823C1F78CE045DF86E0D2
:1006D00043DF81E041DF82E03FDF81E090E047D00F
:1006E0000F900F90CF91DF911F91FF90EF900895A1
:1006F000882311F4C09803C0813019F4C09A9298ED
:100700000895833019F4C09A929A0895823011F4B2
:10071000C098929A089592B38295880F880F807C32
:100720009F7B982B92BB0895982F882311F4662302
:1007300049F0979884B3836084BB85B3836085BB9D
:10074000992309F4A998662309F4A898089590E0DC
:100750009BBD8ABD70E079BD68BD089592B39F7C52
:10076000982B92BB88B38F7C862B88BB0895BC01E5
:1007700020E030E009C04091D9004C5D8091D90063
:100780008417E1F72F5F3F4F26173707A4F308952B
:10079000AA1BBB1B51E107C0AA1FBB1FA617B707A7
:1007A00010F0A61BB70B881F991F5A95A9F78095C3
:1007B0009095BC01CD01089597FB092E07260AD01C
:1007C00077FD04D0E5DF06D000201AF4709561951E
:1007D0007F4F0895F6F7909581959F4F0895F8946F
:0207E000FFCF49
:1007E2004C434420546573743A200053657420438B
:1007F2007572736F7200536574204C696E65005395
:10080200657420437572736F72204C696E65005473
:1008120065737420496E74004C4546540043454E3E
:100822005445520052494748540061626364656608
:100832006768696A6B6C6D6E6F70717273747576CE
:0C08420077797A313233343536370000D4
:00000001FF
