:100000000C9434000C9451000C94D2000C945100C8
:100010000C9451000C9451000C9451000C94A400C9
:100020000C9451000C9456000C9451000C94510007
:100030000C9451000C9451000C9451000C945100FC
:100040000C9451000C9451000C9451000C945100EC
:100050000C9451000C94E7000C9451000C94510046
:100060000C9451000C94510011241FBECFEFD4E02A
:10007000DEBFCDBF11E0A0E0B1E0E8E4F3E002C0F4
:1000800005900D92A030B107D9F711E0A0E0B1E0E2
:1000900001C01D92A131B107E1F70E9453000C94F9
:1000A000A2010C9400000E941401FFCF1F920F9236
:1000B0000FB60F9211242F933F934F935F936F933B
:1000C0007F938F939F93AF93BF93EF93FF93809111
:1000D000B2008B5D8093B20080910A018F5F8093A4
:1000E0000A0180910A01882399F480910D01909171
:1000F0000E01A0910F01B09110010196A11DB11D3B
:1001000080930D0190930E01A0930F01B093100105
:1001100080910B0190910C01892B29F0E0910B014A
:10012000F0910C010995FF91EF91BF91AF919F91D3
:100130008F917F916F915F914F913F912F910F9090
:100140000FBE0F901F9018951F920F920FB60F922F
:1001500011248F939F93AF93BF9380910A018F5F78
:1001600080930A0180910A01882399F480910D01FE
:1001700090910E01A0910F01B09110010196A11D67
:10018000B11D80930D0190930E01A0930F01B093C8
:100190001001BF91AF919F918F910F900FBE0F9063
:1001A0001F9018951F920F920FB60F9211248F93E4
:1001B0009F9381E090E09093010180930001E99882
:1001C0009F918F910F900FBE0F901F9018951F92C7
:1001D0000F920FB60F9211242F933F934F935F937B
:1001E0006F937F938F939F93AF93BF93EF93FF93FF
:1001F0008091020190910301892B29F0E091020185
:10020000F09103010995FF91EF91BF91AF919F91FB
:100210008F917F916F915F914F913F912F910F90AF
:100220000FBE0F901F90189583EC8093B00081E073
:100230008093B100E0E7F0E080818160808381E914
:100240008093B3008FEC8093C4001092C50088E1C6
:100250008093C10086E08093C2008FE384B984EF6D
:100260008AB981EA8093800082E08093810086E8E9
:1002700080937A005F9880E00E94720181E061E0E3
:100280000E947B0180E060E00E947B0181E00E948F
:100290005F0180E260E20E94990180E060E00E94DC
:1002A0008E01109205011092040110920C0110921F
:1002B0000B01109203011092020178940895882393
:1002C00011F4289803C0813019F4289A5A98089597
:1002D000833019F4289A5A9A0895823011F4289894
:1002E0005A9A08959BB18295880F880F807C9F7BD6
:1002F000982B9BB90895982F882311F4662349F011
:100300005F9887B1836087B988B1836088B9992382
:1003100009F44198662309F44098089590E0909379
:1003200089008093880070E070938B0060938A004E
:1003300008959BB19F7C982B9BB985B18F7C862BB0
:0803400085B90895F894FFCF80
:00000001FF
