:1000000012C02CC02BC0F3C0A6C028C027C026C079
:1000100025C024C023C022C021C020C016C11EC0DC
:100020001DC01CC01BC011241FBECFE5D4E0DEBF25
:10003000CDBF10E0A0E6B0E0E0ECF3E002C0059038
:100040000D92AA36B107D9F710E0AAE6B0E001C0D8
:100050001D92AD38B107E1F702D0B0C1D1CF1CD1AC
:10006000FFCFCF93DF9334B125B1922F80E0232FC0
:1000700030E0282B392BA0916A00B0916B00BD01B4
:10008000660F771FFB01E059FF4F3183208380917A
:10009000800090918100892BC9F1A230B105B4F59F
:1000A000232F3327FB01E459FF4F40815181C901C0
:1000B000841B950B9595879595958795840F951F2E
:1000C00091838083EB01C05ADF4F48815981281BFF
:1000D000390B249FC001259F900D349F900D112452
:1000E000039744F1E1E0F0E0EA27FB27EE0FFF1F62
:1000F000EE57FF4F808191810196918380838827FD
:100100009927841B950B9983888314C0A430B1056B
:1001100089F480917C0090917D00892B29F480E006
:1001200090E020583C4F10F481E090E090937D00E7
:1001300080937C00FD01EC59FF4F808187B9CD0190
:10014000019666E070E026D190936B0080936A0080
:10015000DF91CF9108951F920F920FB60F92112445
:100160002F933F934F935F936F937F938F939F93BF
:10017000AF93BF93EF93FF9384B58B5D84BD809164
:1001800086008F5F8093860080918600882399F493
:100190008091890090918A00A0918B00B0918C0091
:1001A0000196A11DB11D8093890090938A00A093B0
:1001B0008B00B0938C008091870090918800892BF0
:1001C00029F0E0918700F09188000995FF91EF9167
:1001D000BF91AF919F918F917F916F915F914F915F
:1001E0003F912F910F900FBE0F901F9018951F9267
:1001F0000F920FB60F9211248F939F93AF93BF93DB
:10020000809186008F5F809386008091860088238E
:1002100099F48091890090918A00A0918B00B0910F
:100220008C000196A11DB11D8093890090938A00D6
:10023000A0938B00B0938C00BF91AF919F918F9151
:100240000F900FBE0F901F9018951F920F920FB630
:100250000F9211242F933F934F935F936F937F934C
:100260008F939F93AF93BF93EF93FF93E0917E00A3
:10027000F0917F000995FF91EF91BF91AF919F9110
:100280008F917F916F915F914F913F912F910F903F
:100290000FBE0F901F90189589E785BD89B78064C0
:1002A00089BF81E983BD10BC8FEC89B988E18AB927
:1002B00086E880BD8FE387BB8CEF81BB81EA8FBD71
:1002C00082E08EBD80E03AD081E061E040D080E005
:1002D00060E03DD081E01FD0939A80E260E251D08F
:1002E00080E060E047D01092810010928000109270
:1002F00088001092870081E390E090937F008093C4
:100300007E0084B38C7F84BB979A81E687B98FEE99
:1003100086B978940895882311F4C09803C0813079
:1003200019F4C09A92980895833019F4C09A929A59
:100330000895823011F4C098929A089592B38295EC
:10034000880F880F807C9F7B982B92BB0895982FF5
:10035000882311F4662349F0979884B3836084BBA3
:1003600085B3836085BB992309F4A998662309F4B2
:10037000A898089590E09BBD8ABD70E079BD68BDE6
:10038000089592B39F7C982B92BB88B38F7C862B69
:1003900088BB0895AA1BBB1B51E107C0AA1FBB1F46
:1003A000A617B70710F0A61BB70B881F991F5A9501
:1003B000A9F780959095BC01CD010895F894FFCFE1
:0A03C00001000100626364E5606162
:00000001FF
