:100000000C9434000C9451000C942C010C9451006D
:100010000C9451000C9451000C9451000C94FE006F
:100020000C9451000C94B0000C9451000C945100AD
:100030000C9451000C9451000C9451000C945100FC
:100040000C9451000C9451000C9451000C945100EC
:100050000C9451000C9441010C9451000C945100EB
:100060000C9451000C94510011241FBECFEFD4E02A
:10007000DEBFCDBF11E0A0E0B1E0EAEBF5E002C0E9
:1000800005900D92A030B107D9F711E0A0E0B1E0E2
:1000900001C01D92A131B107E1F70E946E000C94DE
:1000A000DB020C94000080E160E10E94150280E018
:1000B0006CED0E940A02089580E160E10E94150241
:1000C0008AEF60E00E940A02089580E260E20E94E6
:1000D00015028AEF6CED0E940A0208951F93CF93D8
:1000E000DF930E946E010E941E02182F0E941E02C2
:1000F000112361F48823B9F70E94650081E00E9412
:10010000EE0180E060E00E94F701EDCF882359F313
:10011000181749F780E060E00E940A02C12FD0E082
:10012000CE0187709070892B49F00E945C0080E0BE
:100130000E94EE0181E060E00E94F701C873D07078
:10014000CD2B49F00E94530080E00E94EE0180E038
:1001500061E00E94F70188EE93E00E946E02C3CF37
:100160001F920F920FB60F9211242F933F934F932C
:100170005F936F937F938F939F93AF93BF93EF930F
:10018000FF938091B2008B5D8093B20080910A0151
:100190008F5F80930A0180910A01882399F48091EE
:1001A0000D0190910E01A0910F01B09110010196E7
:1001B000A11DB11D80930D0190930E01A0930F011D
:1001C000B093100180910B0190910C01892B29F0C3
:1001D000E0910B01F0910C010995FF91EF91BF9116
:1001E000AF919F918F917F916F915F914F913F91CF
:1001F0002F910F900FBE0F901F9018951F920F9286
:100200000FB60F9211248F939F93AF93BF9380915A
:100210000A018F5F80930A0180910A01882399F473
:1002200080910D0190910E01A0910F01B0911001EC
:100230000196A11DB11D80930D0190930E01A09315
:100240000F01B0931001BF91AF919F918F910F90CB
:100250000FBE0F901F9018951F920F920FB60F921E
:1002600011248F939F9381E090E0909301018093FC
:100270000001E9989F918F910F900FBE0F901F90F2
:1002800018951F920F920FB60F9211242F933F9340
:100290004F935F936F937F938F939F93AF93BF938E
:1002A000EF93FF938091020190910301892B29F034
:1002B000E0910201F09103010995FF91EF91BF9147
:1002C000AF919F918F917F916F915F914F913F91EE
:1002D0002F910F900FBE0F901F90189583EC809375
:1002E000B00081E08093B100E0E7F0E080818160C0
:1002F000808381E98093B3008FEC8093C4001092D7
:10030000C50088E18093C10086E08093C2008FE33E
:1003100084B984EF8AB981EA8093800082E0809377
:10032000810086E880937A005F9880E00E94EE0169
:1003300081E061E00E94F70180E060E00E94F70147
:1003400081E00E94DB0180E260E20E94150280E011
:1003500060E00E940A0210920501109204011092BE
:100360000C0110920B01109203011092020178947B
:1003700008958530910511F485EC01C08064809367
:100380007C006115710519F0862F0E94660280912C
:100390007A00806480937A0080917A0084FFFCCF99
:1003A00080917A00806180937A002091780030916A
:1003B0007900C9010895882311F4289803C0813079
:1003C00019F4289A5A980895833019F4289A5A9A59
:1003D0000895823011F428985A9A08959BB1829515
:1003E000880F880F807C9F7B982B9BB90895982F4E
:1003F000882311F4662349F05F9887B1836087B939
:1004000088B1836088B9992309F44198662309F477
:100410004098089590E0909389008093880070E060
:1004200070938B0060938A0008959BB19F7C982BFA
:100430009BB985B18F7C862B85B90895EF92FF9289
:100440000F931F93CF93DF93C0910401D0910501C7
:100450004B9B02C020E032C01092050110920401B3
:10046000539A5B9A84E090E06AE070E00E94B901E0
:100470007C0153985B9885E00E946602D093050149
:10048000C093040100E010E060E070E48CE990E0CB
:10049000A80197010E94C002CA01B9012EE330E011
:1004A00040E050E00E947F026855724689409040CB
:1004B00020E137E240E050E00E94C002822FDF914D
:1004C000CF911F910F91FF90EF90089590910A01A5
:1004D000980F80910A018917E1F70895BC0120E087
:1004E00030E009C040910A014C5D80910A018417F7
:1004F000E1F72F5F3F4F26173707A4F30895629F58
:10050000D001739FF001829FE00DF11D649FE00D0B
:10051000F11D929FF00D839FF00D749FF00D659F6C
:10052000F00D9927729FB00DE11DF91F639FB00D6B
:10053000E11DF91FBD01CF0111240895A1E21A2E7A
:10054000AA1BBB1BFD010DC0AA1FBB1FEE1FFF1F77
:10055000A217B307E407F50720F0A21BB30BE40BC7
:10056000F50B661F771F881F991F1A9469F760950E
:100570007095809590959B01AC01BD01CF010895C8
:1005800097FB092E05260ED057FD04D0D7DF0AD0E1
:10059000001C38F450954095309521953F4F4F4FB2
:1005A0005F4F0895F6F790958095709561957F4F10
:0A05B0008F4F9F4F0895F894FFCF7E
:00000001FF
