:1000000012C02CC0EFC0C0C073C028C027C026C01B
:1000100025C024C023C022C021C020C0FAC01EC0F9
:100020001DC01CC01BC011241FBECFE5D4E0DEBF25
:10003000CDBF10E0A0E6B0E0E2EFF4E002C0059032
:100040000D92A036B107D9F710E0A0E6B0E001C0EC
:100050001D92A137B107E1F717D049C2D1CF80E196
:1000600060E184D180E06CED7AD1089580E160E1B7
:100070007DD18AEF60E073D1089580E260E276D1AD
:100080008AEF6CED6CD108951F93CF93DF93EED080
:1000900076D1182F74D1112349F48823C9F7EDDFE5
:1000A00081E041D180E060E047D1F2CF882381F345
:1000B000181771F780E060E052D1C12FD0E0CE0177
:1000C00087709070892B31F0D1DF80E02CD181E0F6
:1000D00060E032D1C873D070CD2B31F0C0DF80E04A
:1000E00022D180E061E028D188EE93E093D1D0CF97
:1000F0001F920F920FB60F9211242F933F934F939D
:100100005F936F937F938F939F93AF93BF93EF937F
:10011000FF9384B58B5D84BD80916A008F5F80936F
:100120006A0080916A00882399F480916D00909113
:100130006E00A0916F00B09170000196A11DB11DDD
:1001400080936D0090936E00A0936F00B093700049
:1001500080916B0090916C00892B29F0E0916B00ED
:10016000F0916C000995FF91EF91BF91AF919F9134
:100170008F917F916F915F914F913F912F910F9050
:100180000FBE0F901F9018951F920F920FB60F92EF
:1001900011248F939F93AF93BF9380916A008F5FD9
:1001A00080936A0080916A00882399F480916D00A1
:1001B00090916E00A0916F00B09170000196A11D0A
:1001C000B11D80936D0090936E00A0936F00B0936B
:1001D0007000BF91AF919F918F910F900FBE0F90C4
:1001E0001F9018951F920F920FB60F9211248F93A4
:1001F0009F9381E090E090936100809360008BB7C3
:100200008F778BBF9F918F910F900FBE0F901F9094
:1002100018951F920F920FB60F9211242F933F93B0
:100220004F935F936F937F938F939F93AF93BF93FE
:10023000EF93FF938091620090916300892B29F0E6
:10024000E0916200F09163000995FF91EF91BF91F9
:10025000AF919F918F917F916F915F914F913F915E
:100260002F910F900FBE0F901F90189589E785BDB5
:1002700089B7806489BF81E983BD10BC8FEC89B9DF
:1002800088E18AB996E890BD8FE387BB84EF81BB94
:1002900081EA8FBD82E08EBD96B9979880E043D009
:1002A00081E061E049D080E060E046D081E028D084
:1002B00080E260E25BD080E060E051D010926500A7
:1002C0001092640010926C0010926B001092630008
:1002D00010926200789408958530910511F485ECB0
:1002E00001C0806487B96115710511F0862F8AD02D
:1002F000369A349BFECF349A24B135B1C9010895A2
:10030000882311F4C09803C0813019F4C09A9298E0
:100310000895833019F4C09A929A0895823011F4A6
:10032000C098929A089592B38295880F880F807C26
:100330009F7B982B92BB0895982F882311F46623F6
:1003400049F0979884B3836084BB85B3836085BB91
:10035000992309F4A998662309F4A898089590E0D0
:100360009BBD8ABD70E079BD68BD089592B39F7C46
:10037000982B92BB88B38F7C862B88BB0895EF9215
:10038000FF920F931F93CF93DF93C0916400D0919E
:100390006500839B02C020E02DC010926500109282
:1003A00064008B9A939A84E090E06AE070E094DFB6
:1003B0007C018B98939885E025D0D0936500C093FD
:1003C000640000E010E060E070E48CE990E0A801D7
:1003D000970172D0CA01B9012EE330E040E050E04D
:1003E0002AD0685572468940904020E137E240E0CB
:1003F00050E062D0822FDF91CF911F910F91FF903B
:10040000EF90089590916A00980F80916A00891783
:10041000E1F70895BC0120E030E009C040916A0096
:100420004C5D80916A008417E1F72F5F3F4F2617DC
:100430003707A4F30895629FD001739FF001829F54
:10044000E00DF11D649FE00DF11D929FF00D839F63
:10045000F00D749FF00D659FF00D9927729FB00D00
:10046000E11DF91F639FB00DE11DF91FBD01CF0113
:1004700011240895A1E21A2EAA1BBB1BFD010DC079
:10048000AA1FBB1FEE1FFF1FA217B307E407F50744
:1004900020F0A21BB30BE40BF50B661F771F881F20
:1004A000991F1A9469F760957095809590959B01B6
:1004B000AC01BD01CF01089597FB092E05260ED092
:1004C00057FD04D0D7DF0AD0001C38F45095409572
:1004D000309521953F4F4F4F5F4F0895F6F7909518
:1004E0008095709561957F4F8F4F9F4F0895F89439
:0204F000FFCF3C
:00000001FF
