:100000000C9434000C9451000C9453010C94510046
:100010000C9451000C9451000C9451000C94250147
:100020000C9451000C94D7000C9451000C94510086
:100030000C9451000C9451000C9451000C945100FC
:100040000C9451000C9451000C9451000C945100EC
:100050000C9451000C9468010C9451000C945100C4
:100060000C9451000C94510011241FBECFEFD4E02A
:10007000DEBFCDBF11E0A0E0B1E0E0E9F6E002C0F4
:1000800005900D92A630B107D9F711E0A6E0B1E0D6
:1000900001C01D92A731B107E1F70E9484000C94C2
:1000A00046030C940000FB019F01E8944230C4F029
:1000B0004532B4F44A3029F497FB1EF490958195AB
:1000C0009F4F642F77270E94F502805D8A330CF0E2
:1000D000895D8193CB010097A1F716F45DE25193FE
:1000E0001082C9010C947400DC01FC01672F71912E
:1000F0007723E1F7329704C07C916D93708362910E
:10010000AE17BF07C8F30895BF92CF92DF92EF9268
:10011000FF920F931F930E949501519A59981EEFD9
:100120004DEFB42E3BEFC32E27EFD22E9FEEE92EDC
:1001300081E9F82E00E91092C1001093B300489BAA
:1001400002C081E001C082E00E9402020E94860299
:10015000982F80FF02C01093050181FF02C0B0926A
:10016000050182FF02C0C092050183FF02C0D09248
:10017000050184FF02C0E092050185FF03C00093E2
:10018000050102C09923B9F2F092B30090E00E94F9
:10019000640280E091E00E9445028091050190E0B8
:1001A0000E94640282E091E00E944502C4CF1F9247
:1001B0000F920FB60F9211242F933F934F935F939B
:1001C0006F937F938F939F93AF93BF93EF93FF931F
:1001D0008091B2008B5D8093B200809110018F5F9F
:1001E0008093100180911001882399F4809113016C
:1001F00090911401A0911501B09116010196A11DD5
:10020000B11D8093130190931401A0931501B09335
:1002100016018091110190911201892B29F0E09132
:100220001101F09112010995FF91EF91BF91AF91EA
:100230009F918F917F916F915F914F913F912F91FE
:100240000F900FBE0F901F9018951F920F920FB630
:100250000F9211248F939F93AF93BF9380911001BE
:100260008F5F8093100180911001882399F4809111
:10027000130190911401A0911501B09116010196FE
:10028000A11DB11D8093130190931401A09315013A
:10029000B0931601BF91AF919F918F910F900FBEB8
:1002A0000F901F9018951F920F920FB60F92112466
:1002B0008F939F9381E090E09093070180930601D4
:1002C000E9989F918F910F900FBE0F901F901895F6
:1002D0001F920F920FB60F9211242F933F934F93BB
:1002E0005F936F937F938F939F93AF93BF93EF939E
:1002F000FF938091080190910901892B29F0E091E9
:100300000801F09109010995FF91EF91BF91AF911B
:100310009F918F917F916F915F914F913F912F911D
:100320000F900FBE0F901F90189583EC8093B00034
:1003300081E08093B100E0E7F0E08081816080831C
:1003400081E98093B3008FEC8093C4001092C500C4
:1003500088E18093C10086E08093C2008FE384B976
:1003600084EF8AB981EA8093800082E080938100E3
:1003700086E880937A005F9880E00E94150281E011
:1003800061E00E941E0280E060E00E941E0281E0A7
:100390000E94020280E260E20E943C0280E060E093
:1003A0000E94310210920B0110920A011092120168
:1003B0001092110110920901109208017894089589
:1003C0008530910511F485EC01C0806480937C0038
:1003D0006115710519F0862F0E94CE0280917A0076
:1003E000806480937A0080917A0084FFFCCF8091B2
:1003F0007A00806180937A002091780030917900B2
:10040000C9010895882311F4289803C0813019F494
:10041000289A5A980895833019F4289A5A9A089578
:10042000823011F428985A9A08959BB18295880FCA
:10043000880F807C9F7B982B9BB90895982F8823E9
:1004400011F4662349F05F9887B1836087B988B15A
:10045000836088B9992309F44198662309F4409888
:10046000089590E0909389008093880070E07093E5
:100470008B0060938A0008959BB19F7C982B9BB959
:1004800085B18F7C862B85B90895AC0120E098E07A
:1004900014C09093C1008091C00080648093C0001C
:1004A0008091C00085FFFCCFE093C6008091C00022
:1004B00086FFFCCF2F5F1092C100FA01E20FF11D01
:1004C000E081EE2331F708950F931F93DF93CF93CD
:1004D000CDB7DEB727970FB6F894DEBF0FBECDBFFE
:1004E0008E010F5F1F4FB8014AE050E00E94530099
:1004F000C8010E94450227960FB6F894DEBF0FBED2
:10050000CDBFCF91DF911F910F910895EF92FF9290
:100510000F931F93CF93DF93C0910A01D0910B01EA
:100520004B9B02C020E032C010920B0110920A01D6
:10053000539A5B9A84E090E06AE070E00E94E001E8
:100540007C0153985B9885E00E94CE02D0930B010A
:10055000C0930A0100E010E060E070E48CE990E0F4
:10056000A80197010E942B03CA01B9012EE330E0D4
:1005700040E050E00E94D6026855724689409040A3
:1005800020E137E240E050E00E942B03822FDF9110
:10059000CF911F910F91FF90EF90089590911001CE
:1005A000980F809110018917E1F70895629FD0019B
:1005B000739FF001829FE00DF11D649FE00DF11D1E
:1005C000929FF00D839FF00D749FF00D659FF00DCD
:1005D0009927729FB00DE11DF91F639FB00DE11DBA
:1005E000F91FBD01CF0111240895AA1BBB1B51E1C6
:1005F00007C0AA1FBB1FA617B70710F0A61BB70B93
:10060000881F991F5A95A9F780959095BC01CD0137
:100610000895A1E21A2EAA1BBB1BFD010DC0AA1F43
:10062000BB1FEE1FFF1FA217B307E407F50720F05B
:10063000A21BB30BE40BF50B661F771F881F991FD6
:100640001A9469F760957095809590959B01AC011F
:10065000BD01CF01089597FB092E05260ED057FD49
:1006600004D0D7DF0AD0001C38F45095409530955F
:1006700021953F4F4F4F5F4F0895F6F79095809526
:10068000709561957F4F8F4F9F4F0895F894FFCFDE
:0606900020000D0A00919C
:00000001FF
