:1000000012C02CC03AC10BC1BEC028C027C026C038
:1000100025C024C023C022C021C020C045C11EC0AD
:100020001DC01CC01BC011241FBECFE5D4E0DEBF25
:10003000CDBF10E0A0E6B0E0E0E7F5E002C005903B
:100040000D92A036B107D9F710E0A0E6B0E001C0EC
:100050001D92A637B107E1F702D088C2D1CFDF9257
:10006000EF92FF920F931F934CD1C3D180E0E9D15F
:1000700080E260E21CD28FEA6FEA12D221D229D24A
:100080007B018C0180E49FE1A0E0B0E0E80EF91E66
:100090000A1F1B1F9FEAD92E0DC080916D00909101
:1000A0006E0020916B0030916C00821B6D2D681BDF
:1000B0008155F6D18091650090916600892B31F4CD
:1000C00008D26E157F058007910738F300916B0009
:1000D00010916C0080E090E060E070E0A9D180E1D8
:1000E00060E1E5D188EC68ECDBD184E690E00BD2EE
:1000F00080E160E2DCD180916B0090916C00081B84
:10010000190B80E090E060E070E092D103C082E3E0
:1001100090E0F9D180916D0090916E008A35910543
:10012000B4F380E260E2C3D180E090E060E070E090
:100130007FD18FEAF82E0DC080916D0090916E00F6
:1001400020916B0030916C00821B6F2D681B8155D4
:10015000A7D180916B0090916C008017910764F398
:1001600080E060E09DD192E0093519071CF081E044
:1001700068D108C00D5211401CF083E062D102C06A
:1001800082E05FD1FFCF1F920F920FB60F92112422
:100190002F933F934F935F936F937F938F939F938F
:1001A000AF93BF93EF93FF9384B58B5D84BD809134
:1001B0006F008F5F80936F0080916F00882399F4A8
:1001C0008091720090917300A0917400B0917500BD
:1001D0000196A11DB11D8093720090937300A093AE
:1001E0007400B09375008091700090917100892B1C
:1001F00029F0E0917000F09171000995FF91EF9165
:10020000BF91AF919F918F917F916F915F914F912E
:100210003F912F910F900FBE0F901F9018951F9236
:100220000F920FB60F9211248F939F93AF93BF93AA
:1002300080916F008F5F80936F0080916F008823A3
:1002400099F48091720090917300A0917400B09124
:1002500075000196A11DB11D8093720090937300EB
:10026000A0937400B0937500BF91AF919F918F914F
:100270000F900FBE0F901F9018951F920F920FB600
:100280000F9211248F939F9381E090E090936600EA
:10029000809365008BB78F778BBF9F918F910F9065
:1002A0000FBE0F901F9018951F920F920FB60F92CE
:1002B00011242F933F934F935F936F937F938F936B
:1002C0009F93AF93BF93EF93FF93809167009091BB
:1002D0006800892B29F0E0916700F091680009958A
:1002E000FF91EF91BF91AF919F918F917F916F910E
:1002F0005F914F913F912F910F900FBE0F901F90E4
:10030000189589E785BD89B7806489BF81E983BD78
:1003100010BC8FEC89B988E18AB996E890BD8FE36B
:1003200087BB84EF81BB81EA8FBD82E08EBD96B929
:10033000979880E099D081E061E09FD080E060E014
:100340009CD081E07ED080E260E2B1D080E060E0CD
:10035000A7D010926A00109269001092710010925A
:100360007000109268001092670078940895809150
:10037000690090916A00892BD9F140916000242F87
:1003800030E095B1F901ED59FF4F9083442311F00E
:1003900080E601C081E687B99C3890F4D901AF5955
:1003A000BF4F8C91813001F5F901EE0FFF1FE55928
:1003B000FF4F808191810196918380831C9214C0AC
:1003C000913A90F0D901AF59BF4F8C91882361F4D5
:1003D000F901EE0FFF1FE559FF4F808191810196D2
:1003E0009183808381E08C9381E048274093600073
:1003F0000895F89484B38C7F84BB979A8FEE86B966
:1004000081E687B981E090E090936A00809369006B
:1004100087EB91E090936800809367007894109246
:100420006C0010926B0010926E0010926D00089597
:1004300090936C0080936B0070936E0060936D00DE
:100440000895882311F4C09803C0813019F4C09A2C
:1004500092980895833019F4C09A929A0895823040
:1004600011F4C098929A089592B38295880F880FDC
:10047000807C9F7B982B92BB0895982F882311F442
:10048000662349F0979884B3836084BB85B3836007
:1004900085BB992309F4A998662309F4A8980895BF
:1004A00090E09BBD8ABD70E079BD68BD089592B3B0
:1004B0009F7C982B92BB88B38F7C862B88BB08953A
:1004C00093988B9885B7837F85BF8BB780688BBFE8
:1004D0000895609172007091730080917400909102
:1004E000750020916F00982F872F762F6627620F57
:1004F000711D811D911D24E230E040E050E014D0D8
:10050000CA01B9010895BC0120E030E009C0409162
:100510006F004C5D80916F008417E1F72F5F3F4FB4
:1005200026173707A4F30895A1E21A2EAA1BBB1BB6
:10053000FD010DC0AA1FBB1FEE1FFF1FA217B307AF
:10054000E407F50720F0A21BB30BE40BF50B661FC5
:10055000771F881F991F1A9469F760957095809589
:1005600090959B01AC01BD01CF010895F894FFCF98
:00000001FF
