:100000000C9434000C9451000C947A010C9451001F
:100010000C9451000C9451000C9451000C944C0120
:100020000C9451000C94FE000C9451000C9451005F
:100030000C9451000C9451000C9451000C945100FC
:100040000C9451000C9451000C9451000C945100EC
:100050000C9451000C948F010C9451000C9451009D
:100060000C9451000C94510011241FBECFEFD4E02A
:10007000DEBFCDBF11E0A0E0B1E0E2E2F6E002C0F9
:1000800005900D92A030B107D9F711E0A0E0B1E0E2
:1000900001C01D92A631B107E1F70E9453000C94F4
:1000A0000F030C940000DF92EF92FF920F931F93C7
:1000B0000E94BC010E944B0280E00E94750280E217
:1000C00060E20E94AF028FEA6FEA0E94A4020E94DF
:1000D000B8020E94C1027B018C0180E49FE1A0E094
:1000E000B0E0E80EF91E0A1F1B1F9FEAD92E0EC0B2
:1000F00080910D0190910E0120910B0130910C0126
:10010000821B6D2D681B81550E94A4028091050100
:1001100090910601892B39F40E94C1026E157F056A
:100120008007910728F300910B0110910C0180E0EA
:1001300090E060E070E00E946C0280E160E10E946B
:10014000AF0288EC68EC0E94A40284E690E00E9472
:10015000DC0280E160E20E94AF0280910B0190918D
:100160000C01081B190B80E090E060E070E00E9439
:100170006C0204C082E390E00E94DC0280910D01D9
:1001800090910E018A359105ACF380E260E20E9405
:10019000AF0280E090E060E070E00E946C028FEAC5
:1001A000F82E0EC080910D0190910E0120910B014F
:1001B00030910C01821B6F2D681B81550E94A40297
:1001C00080910B0190910C01801791075CF380E006
:1001D00060E00E94A40292E00935190724F081E052
:1001E0000E9475020AC00D52114024F083E00E9463
:1001F000750203C082E00E947502FFCF1F920F922A
:100200000FB60F9211242F933F934F935F936F93E9
:100210007F938F939F93AF93BF93EF93FF938091BF
:10022000B2008B5D8093B20080910F018F5F80934D
:100230000F0180910F01882399F480911201909110
:100240001301A0911401B09115010196A11DB11DDA
:100250008093120190931301A0931401B0931501A0
:100260008091100190911101892B29F0E0911001EA
:10027000F09111010995FF91EF91BF91AF919F917D
:100280008F917F916F915F914F913F912F910F903F
:100290000FBE0F901F9018951F920F920FB60F92DE
:1002A00011248F939F93AF93BF9380910F018F5F22
:1002B00080930F0180910F01882399F4809112019E
:1002C00090911301A0911401B09115010196A11D07
:1002D000B11D8093120190931301A0931401B09368
:1002E0001501BF91AF919F918F910F900FBE0F900D
:1002F0001F9018951F920F920FB60F9211248F9393
:100300009F9381E090E09093060180930501E99826
:100310009F918F910F900FBE0F901F9018951F9275
:100320000F920FB60F9211242F933F934F935F9329
:100330006F937F938F939F93AF93BF93EF93FF93AD
:100340008091070190910801892B29F0E091070124
:10035000F09108010995FF91EF91BF91AF919F91A5
:100360008F917F916F915F914F913F912F910F905E
:100370000FBE0F901F90189583EC8093B00081E022
:100380008093B100E0E7F0E080818160808381E9C3
:100390008093B3008FEC8093C4001092C50088E175
:1003A0008093C10086E08093C2008FE384B984EF1C
:1003B0008AB981EA8093800082E08093810086E898
:1003C00080937A005F9880E00E94880281E061E07B
:1003D0000E94910280E060E00E94910281E00E9410
:1003E000750280E260E20E94AF0280E060E00E945D
:1003F000A40210920A0110920901109211011092A8
:1004000010011092080110920701789408958091CC
:10041000090190910A01892BE9F140910001242FF3
:1004200030E090917900F901ED5FFE4F9083442315
:1004300011F080E601C081E680937C009C3890F446
:10044000D901AF5FBE4F8C91813001F5F901EE0FFC
:10045000FF1FE55FFE4F808191810196918380832C
:100460001C9214C0913A90F0D901AF5FBE4F8C91AD
:10047000882361F4F901EE0FFF1FE55FFE4F8081D5
:10048000918101969183808381E08C9381E048275C
:10049000409300010895F89487B18C7F87B95F9AE3
:1004A0008FEE80937A0081E680937C0081E090E07B
:1004B00090930A018093090187E092E090930801EC
:1004C00080930701789410920C0110920B01109206
:1004D0000E0110920D01089590930C0180930B0171
:1004E00070930E0160930D010895882311F42898EC
:1004F00003C0813019F4289A5A980895833019F46A
:10050000289A5A9A0895823011F428985A9A089590
:100510009BB18295880F880F807C9F7B982B9BB91D
:100520000895982F882311F4662349F05F9887B1C6
:10053000836087B988B1836088B9992309F44198A9
:10054000662309F44098089590E090938900809381
:10055000880070E070938B0060938A0008959BB1CF
:100560009F7C982B9BB985B18F7C862B85B908958C
:100570005B985398E9E6F0E08081837F8083E99A75
:10058000089560911201709113018091140190916E
:10059000150120910F01982F872F762F6627620F64
:1005A000711D811D911D24E230E040E050E00E9469
:1005B000ED02CA01B9010895BC0120E030E009C094
:1005C00040910F014C5D80910F018417E1F72F5F7F
:1005D0003F4F26173707A4F30895A1E21A2EAA1B4E
:1005E000BB1BFD010DC0AA1FBB1FEE1FFF1FA217E3
:1005F000B307E407F50720F0A21BB30BE40BF50BE0
:10060000661F771F881F991F1A9469F76095709568
:10061000809590959B01AC01BD01CF010895F894A0
:02062000FFCF0A
:00000001FF
