:1000000012C02CC0A0C271C224C228C027C026C002
:1000100025C024C023C022C021C020C0ABC21EC046
:100020001DC01CC01BC011241FBECFE5D4E0DEBF25
:10003000CDBF10E0A0E6B0E0E4E2F8E002C0059039
:100040000D92AC38B107D9F710E0ACE8B0E001C0D0
:100050001D92AB3AB107E1F7EDD0E2C3D1CFFB017E
:100060009F01E8944230BCF04532ACF44A3029F4A8
:1000700097FB1EF4909581959F4F642F7727BCD3F3
:10008000805D8A330CF0895D8193CB010097A9F7DD
:1000900016F45DE251931082C90100C0DC01FC013D
:1000A000672F71917723E1F7329704C07C916D93AC
:1000B00070836291AE17BF07C8F30895109299003C
:1000C00010929800109297001092960080E0C8D28B
:1000D00080E060E0CED208958091980090919900E0
:1000E00005969093990080939800CF96CF9730F41F
:1000F00081E090E090939900809398008091960021
:1001000090919700059790939700809396000197A0
:10011000CF9730F48FEF9FEF9093970080939600E6
:1001200080E09ED280E061E0A4D2089580919800A2
:10013000909199000597909399008093980001976A
:10014000CF9730F48FEF9FEF9093990080939800B2
:1001500080919600909197000596909397008093D8
:100160009600CF96CF9730F481E090E0909397007F
:100170008093960080E074D281E060E07AD20895A6
:1001800080919600909197000597909397008093A7
:10019000960020919800309199002550304030937E
:1001A0009900209398000197CF9730F48FEF9FEF3D
:1001B0009093970080939600215030402F33310563
:1001C00030F48FEF9FEF909399008093980080E038
:1001D00047D281E061E04DD20895209196003091A0
:1001E00097002B5F3F4F30939700209396008091AC
:1001F00098009091990005969093990080939800AB
:10020000CF96CF9730F481E090E09093990080935F
:100210009800215C3F4F2F33310530F481E090E0AE
:10022000909397008093960081E01AD280E060E07E
:1002300020D20895CF92DF92EF92FF920F931F93F7
:10024000DF93CF93CDB7DEB727970FB6F894DEBF15
:100250000FBECDBFBCD1B1D280E690E02DD26E01F1
:100260000894C11CD11C8FEFE82EF12C01E01FEF88
:100270009AD290938D0080938C00009709F460C00F
:100280008F73907190938D0080938C00B60140E144
:1002900050E0E5DEC60110D28BE690E00DD28091F1
:1002A0008C0090918D0020E18031920709F43FC0CD
:1002B00050E181319507A0F420E18430920791F15B
:1002C00050E18530950720F482509041C9F525C052
:1002D00050E18630950759F18850904189F518C052
:1002E00050E181329507A1F020E18232920740F47B
:1002F00050E181319507B1F08052904109F50DC070
:1003000050E185329507C1F089529041C9F414C07B
:100310008EE690E0D1D134DF13C084E790E0CCD1F9
:100320005CDF0EC08AE790E0C7D100DF09C080E83B
:1003300090E0C2D1D1DE04C086E890E0BDD1BEDE3F
:100340002091980030919900C9010197CE9730F41F
:10035000215C3F4F309399002093980020919800A2
:1003600030919900C901CE96CE9730F42F5330408A
:100370003093990020939800209196003091970037
:10038000C9010197CE9730F4215C3F4F309397001D
:10039000209396002091960030919700C901CE9647
:1003A000CE9730F42F53304030939700209396002F
:1003B000809198009091990097FF02C040E101C0A0
:1003C00040E2209196003091970037FF02C060E133
:1003D00001C060E28F3F910529F024F0F09299006E
:1003E000E0929800809198009091990081509F4FE1
:1003F00024F410939900009398002F3F310529F0C1
:1004000024F0F0929700E0929600809196009091EF
:10041000970081509F4F24F410939700009396000B
:10042000842F41D1809198009091990097FF03C04B
:10043000909581959F4F609196007091970077FFFE
:1004400003C0709561957F4F27D184E690E0C3D1BA
:100450000FCF1F920F920FB60F9211242F933F933D
:100460004F935F936F937F938F939F93AF93BF93BC
:10047000EF93FF9384B58B5D84BD8091A4008F5F63
:100480008093A4008091A400882399F48091A70010
:100490009091A800A091A900B091AA000196A11D79
:1004A000B11D8093A7009093A800A093A900B093DA
:1004B000AA008091A5009091A600892B29F0E091D7
:1004C000A500F091A6000995FF91EF91BF91AF9122
:1004D0009F918F917F916F915F914F913F912F915C
:1004E0000F900FBE0F901F9018951F920F920FB68E
:1004F0000F9211248F939F93AF93BF938091A40089
:100500008F5F8093A4008091A400882399F4809148
:10051000A7009091A800A091A900B091AA0001960F
:10052000A11DB11D8093A7009093A800A093A900DE
:10053000B093AA00BF91AF919F918F910F900FBE82
:100540000F901F9018951F920F920FB60F921124C3
:100550008F939F9381E090E090939B0080939A000B
:100560008BB78F778BBF9F918F910F900FBE0F909E
:100570001F9018951F920F920FB60F9211242F9370
:100580003F934F935F936F937F938F939F93AF931B
:10059000BF93EF93FF9380919C0090919D00892BD6
:1005A00029F0E0919C00F0919D000995FF91EF9159
:1005B000BF91AF919F918F917F916F915F914F917B
:1005C0003F912F910F900FBE0F901F90189589E7C4
:1005D00085BD89B7806489BF81E983BD10BC8FEC7C
:1005E00089B988E18AB996E890BD8FE387BB84EF2B
:1005F00081BB81EA8FBD82E08EBD96B9979880E07D
:100600002FD081E061E035D080E060E032D081E041
:1006100014D080E260E247D080E060E03DD01092EC
:100620009F0010929E001092A6001092A5001092BA
:100630009D0010929C0078940895882311F4C0982E
:1006400003C0813019F4C09A92980895833019F448
:10065000C09A929A0895823011F4C098929A08959F
:1006600092B38295880F880F807C9F7B982B92BBDA
:100670000895982F882311F4662349F0979884B33E
:10068000836084BB85B3836085BB992309F4A998F3
:10069000662309F4A898089590E09BBD8ABD70E098
:1006A00079BD68BD089592B39F7C982B92BB88B3A7
:1006B0008F7C862B88BB089520E038E009C03AB9CA
:1006C0005E9A5D9BFECFECB95E9BFECF2F5F1AB8A2
:1006D000FC01E20FF11DE081EE2389F7089580917E
:1006E0009000882309F45EC08091A40090E0877098
:1006F0009070892B09F056C050B35095517080917D
:1007000091008F3F19F08F5F80939100809192004C
:10071000909191008517A1F1943008F43FC0409169
:100720009300442391F4513059F49B3F48F081E009
:1007300090E09093950080939400509393001DC097
:10074000109295001092940018C0963048F19B309A
:1007500090F4252F30E08091940090919500880FBF
:10076000991F282B392B30939500209394004F5FCD
:100770004093930002C0109293001092910010C019
:100780009B3070F0809193008E3041F48091940002
:100790009091950090938F0080938E00109293001B
:1007A00050939200089520918E0030918F00109206
:1007B0008F0010928E00C901089581B381BB82B36E
:1007C00082BB81E0809390008FE693E09093A60037
:1007D0008093A5000895BC0120E030E009C040915D
:1007E000A4004C5D8091A4008417E1F72F5F3F4F78
:1007F00026173707A4F30895AA1BBB1B51E107C0B6
:10080000AA1FBB1FA617B70710F0A61BB70B881FA0
:10081000991F5A95A9F780959095BC01CD0108952F
:04082000F894FFCF7A
:1008240052433520546573740D0A000D0A00727723
:10083400640D0A006677640D0A006C66740D0A0084
:0C0844007267740D0A007374700D0A00D6
:00000001FF
