:100000000C9434000C9451000C94EA020C945100AE
:100010000C9451000C9451000C9451000C94BC02AF
:100020000C9451000C946E020C9451000C945100ED
:100030000C9451000C9451000C9451000C945100FC
:100040000C9451000C9451000C9451000C945100EC
:100050000C9451000C94FF020C9451000C9451002C
:100060000C9451000C94510011241FBECFEFD4E02A
:10007000DEBFCDBF11E0A0E0B1E0E8EFF8E002C0E4
:1000800005900D92AC32B107D9F711E0ACE2B1E0C6
:1000900001C01D92AB34B107E1F70E944A010C94F4
:1000A0007A040C940000FB019F01E8944230C4F0F4
:1000B0004532B4F44A3029F497FB1EF490958195AB
:1000C0009F4F642F77270E946604805D8A330CF06F
:1000D000895D8193CB010097A1F716F45DE25193FE
:1000E0001082C9010C947400DC01FC01672F71912E
:1000F0007723E1F7329704C07C916D93708362910E
:10010000AE17BF07C8F30895109239011092380155
:10011000109237011092360180E00E948A0380E03D
:1001200060E00E9493030895809138019091390115
:1001300005969093390180933801CF96CF9730F48C
:1001400081E090E0909339018093380180913601ED
:10015000909137010597909337018093360101976D
:10016000CF9730F48FEF9FEF909337018093360154
:1001700080E00E948A0380E061E00E94930308957A
:1001800080913801909139010597909339018093BE
:1001900038010197CF9730F48FEF9FEF909339019B
:1001A00080933801809136019091370105969093A4
:1001B000370180933601CF96CF9730F481E090E0FD
:1001C000909337018093360180E00E948A0381E09A
:1001D00060E00E9493030895809136019091370169
:1001E0000597909337018093360120913801309123
:1001F000390125503040309339012093380101975F
:10020000CF9730F48FEF9FEF9093370180933601B3
:10021000215030402F33310530F48FEF9FEF909312
:1002200039018093380180E00E948A0381E061E017
:100230000E949303089520913601309137012B5F7E
:100240003F4F3093370120933601809138019091D0
:10025000390105969093390180933801CF96CF9755
:1002600030F481E090E09093390180933801215C73
:100270003F4F2F33310530F481E090E09093370108
:100280008093360181E00E948A0380E060E00E9452
:1002900093030895CF92DF92EF92FF920F931F93F3
:1002A000DF93CF93CDB7DEB727970FB6F894DEBFB5
:1002B0000FBECDBF0E942C030E94470480E091E056
:1002C0000E94BA036E010894C11CD11C8FEFE82E66
:1002D000F12C01E01FEF0E943D0490932D018093CB
:1002E0002C01009709F46EC08F73907190932D01CB
:1002F00080932C01B60140E150E00E945300C601FA
:100300000E94BA038BE091E00E94BA0380912C0115
:1003100090912D0120E18031920709F446C050E10F
:1003200081319507A8F420E184309207B9F150E1BA
:100330008530950728F48250904109F043C027C0CA
:1003400050E18630950789F188509041D9F518C061
:1003500050E181329507A1F020E18232920740F40A
:1003600050E181319507D1F08052904159F50FC08D
:1003700050E18532950701F18952904119F51CC071
:100380008EE091E00E94BA030E94EC001BC084E161
:1003900091E00E94BA030E941B0114C08AE191E01F
:1003A0000E94BA030E94C0000DC080E291E00E944A
:1003B000BA030E94940006C086E291E00E94BA034C
:1003C0000E9484002091380130913901C9010197C0
:1003D000CE9730F4215C3F4F3093390120933801A0
:1003E0002091380130913901C901CE96CE9730F471
:1003F0002F5330403093390120933801209136013A
:1004000030913701C9010197CE9730F4215C3F4FFD
:100410003093370120933601209136013091370116
:10042000C901CE96CE9730F42F5330403093370128
:1004300020933601809138019091390197FF02C0D5
:1004400040E101C040E2209136013091370137FF91
:1004500002C060E101C060E28F3F910529F024F005
:10046000F0923901E0923801809138019091390180
:1004700081509F4F24F410933901009338012F3F8E
:10048000310529F024F0F0923701E0923601809195
:1004900036019091370181509F4F24F4109337011A
:1004A00000933601842F0E94B1038091380190910E
:1004B000390197FF03C0909581959F4F6091360158
:1004C0007091370177FF03C0709561957F4F0E944F
:1004D000A60384E690E00E945504FDCE1F920F9281
:1004E0000FB60F9211242F933F934F935F936F9307
:1004F0007F938F939F93AF93BF93EF93FF938091DD
:10050000B2008B5D8093B200809144018F5F809335
:10051000440180914401882399F48091470190918E
:100520004801A0914901B0914A010196A11DB11D58
:100530008093470190934801A0934901B0934A01E9
:100540008091450190914601892B29F0E091450168
:10055000F09146010995FF91EF91BF91AF919F9165
:100560008F917F916F915F914F913F912F910F905C
:100570000FBE0F901F9018951F920F920FB60F92FB
:1005800011248F939F93AF93BF93809144018F5F0A
:100590008093440180914401882399F4809147011C
:1005A00090914801A0914901B0914A010196A11D85
:1005B000B11D8093470190934801A0934901B093E6
:1005C0004A01BF91AF919F918F910F900FBE0F90F5
:1005D0001F9018951F920F920FB60F9211248F93B0
:1005E0009F9381E090E090933B0180933A01E998DA
:1005F0009F918F910F900FBE0F901F9018951F9293
:100600000F920FB60F9211242F933F934F935F9346
:100610006F937F938F939F93AF93BF93EF93FF93CA
:1006200080913C0190913D01892B29F0E0913C01A2
:10063000F0913D010995FF91EF91BF91AF919F918D
:100640008F917F916F915F914F913F912F910F907B
:100650000FBE0F901F90189583EC8093B00081E03F
:100660008093B100E0E7F0E080818160808381E9E0
:100670008093B3008FEC8093C4001092C50088E192
:100680008093C10086E08093C2008FE384B984EF39
:100690008AB981EA8093800082E08093810086E8B5
:1006A00080937A005F9880E00E948A0381E061E095
:1006B0000E94930380E060E00E94930381E00E9427
:1006C000770380E260E20E94B10380E060E00E9474
:1006D000A60310923F0110923E0110924601109223
:1006E000450110923D0110923C01789408958823B1
:1006F00011F4289803C0813019F4289A5A98089563
:10070000833019F4289A5A9A0895823011F428985F
:100710005A9A08959BB18295880F880F807C9F7BA1
:10072000982B9BB90895982F882311F4662349F0DC
:100730005F9887B1836087B988B1836088B999234E
:1007400009F44198662309F44098089590E0909345
:1007500089008093880070E070938B0060938A001A
:1007600008959BB19F7C982B9BB985B18F7C862B7C
:1007700085B90895AC0120E098E014C09093C100C1
:100780008091C00080648093C0008091C00085FF8C
:10079000FCCFE093C6008091C00086FFFCCF2F5FA6
:1007A0001092C100FA01E20FF11DE081EE2331F752
:1007B000089580913001882309F45EC0809144013E
:1007C00090E087709070892B09F056C059B1509510
:1007D0005170809131018F3F19F08F5F809331010B
:1007E00080913201909131018517A1F1943008F484
:1007F0003FC040913301442391F4513059F49B3F61
:1008000048F081E090E0909335018093340150935B
:1008100033011DC0109235011092340118C096307A
:1008200048F19B3090F4252F30E080913401909175
:100830003501880F991F282B392B309335012093D0
:1008400034014F5F4093330102C010923301109284
:10085000310110C09B3070F0809133018E3041F433
:10086000809134019091350190932F0180932E0156
:100870001092330150933201089520912E0130914E
:100880002F0110922F0110922E01C90108958AB1F3
:100890008AB98BB18BB981E08093300189ED93E007
:1008A00090934601809345010895BC0120E030E01B
:1008B00009C0409144014C5D809144018417E1F7E7
:1008C0002F5F3F4F26173707A4F30895AA1BBB1BC2
:1008D00051E107C0AA1FBB1FA617B70710F0A61B40
:1008E000B70B881F991F5A95A9F780959095BC0161
:0808F000CD010895F894FFCF3B
:1008F80052433520546573740D0A000D0A0072774F
:10090800640D0A006677640D0A006C66740D0A00AF
:0C0918007267740D0A007374700D0A0001
:00000001FF
