:100000000C9434000C9451000C9431010C94510068
:100010000C9451000C9451000C9451000C94030169
:100020000C9451000C94B5000C9451000C945100A8
:100030000C9451000C9451000C9451000C945100FC
:100040000C9451000C9451000C9451000C945100EC
:100050000C9451000C9446010C9451000C945100E6
:100060000C9451000C94510011241FBECFEFD4E02A
:10007000DEBFCDBF11E0A0E0B1E0EAE2F6E002C0F1
:1000800005900D92AC31B107D9F711E0ACE1B1E0C8
:1000900001C01D92AD32B107E1F70E9484000C94BB
:1000A00013030C940000FB019F01E8944230C4F05C
:1000B0004532B4F44A3029F497FB1EF490958195AB
:1000C0009F4F642F77270E94C202805D8A330CF015
:1000D000895D8193CB010097A1F716F45DE25193FE
:1000E0001082C9010C947400DC01FC01672F71912E
:1000F0007723E1F7329704C07C916D93708362910E
:10010000AE17BF07C8F30895EF92FF921F93DF93D6
:10011000CF93CDB7DEB72A970FB6F894DEBF0FBEE8
:10012000CDBF0E94730180E091E00E9423027E0116
:100130000894E11CF11C0E944202882389F00E946D
:100140004202182F80E191E00E942302812F90E06B
:10015000B70142E050E00E945300C7010E94230211
:1001600084EF91E00E949202E6CF1F920F920FB6A9
:100170000F9211242F933F934F935F936F937F932D
:100180008F939F93AF93BF93EF93FF938091B200B0
:100190008B5D8093B200809126018F5F8093260152
:1001A00080912601882399F48091290190912A0158
:1001B000A0912B01B0912C010196A11DB11D80933E
:1001C000290190932A01A0932B01B0932C018091D7
:1001D000270190912801892B29F0E0912701F091C6
:1001E00028010995FF91EF91BF91AF919F918F9158
:1001F0007F916F915F914F913F912F910F900FBE23
:100200000F901F9018951F920F920FB60F92112406
:100210008F939F93AF93BF93809126018F5F8093BD
:10022000260180912601882399F4809129019091DB
:100230002A01A0912B01B0912C010196A11DB11DA5
:100240008093290190932A01A0932B01B0932C0154
:10025000BF91AF919F918F910F900FBE0F901F9004
:1002600018951F920F920FB60F9211248F939F93A0
:1002700081E090E090931D0180931C01E9989F918B
:100280008F910F900FBE0F901F9018951F920F9295
:100290000FB60F9211242F933F934F935F936F9359
:1002A0007F938F939F93AF93BF93EF93FF9380912F
:1002B0001E0190911F01892B29F0E0911E01F09100
:1002C0001F010995FF91EF91BF91AF919F918F9180
:1002D0007F916F915F914F913F912F910F900FBE42
:1002E0000F901F90189583EC8093B00081E080936D
:1002F000B100E0E7F0E080818160808381E9809354
:10030000B3008FEC8093C4001092C50088E1809305
:10031000C10086E08093C2008FE384B984EF8AB97C
:1003200081EA8093800082E08093810086E8809358
:100330007A005F9880E00E94F30181E061E00E9412
:10034000FC0180E060E00E94FC0181E00E94E0018D
:1003500080E260E20E941A0280E060E00E940F02E8
:100360001092210110922001109228011092270171
:1003700010921F0110921E01789408958530910506
:1003800011F485EC01C0806480937C0061157105D7
:1003900019F0862F0E948A0280917A0080648093EF
:1003A0007A0080917A0084FFFCCF80917A0080618E
:1003B00080937A002091780030917900C9010895E6
:1003C000882311F4289803C0813019F4289A5A9888
:1003D0000895833019F4289A5A9A0895823011F4B6
:1003E00028985A9A08959BB18295880F880F807C2F
:1003F0009F7B982B9BB90895982F882311F466232F
:1004000049F05F9887B1836087B988B1836088B904
:10041000992309F44198662309F44098089590E0DF
:10042000909389008093880070E070938B006093B4
:100430008A0008959BB19F7C982B9BB985B18F7CD6
:10044000862B85B90895AC0120E098E014C0909304
:10045000C1008091C00080648093C0008091C00082
:1004600085FFFCCFE093C6008091C00086FFFCCFE3
:100470002F5F1092C100FA01E20FF11DE081EE231F
:1004800031F70895EF92FF920F931F93CF93DF936D
:10049000C0912001D09121014B9B02C020E032C0CD
:1004A0001092210110922001539A5B9A84E090E00F
:1004B0006AE070E00E94BE017C0153985B9885E081
:1004C0000E948A02D0932101C093200100E010E035
:1004D00060E070E48CE990E0A80197010E94F802C6
:1004E000CA01B9012EE330E040E050E00E94A302CF
:1004F000685572468940904020E137E240E050E084
:100500000E94F802822FDF91CF911F910F91FF90EF
:10051000EF90089590912601980F809126018917F8
:10052000E1F70895BC0120E030E009C040912601C8
:100530004C5D809126018417E1F72F5F3F4F26170E
:100540003707A4F30895629FD001739FF001829F43
:10055000E00DF11D649FE00DF11D929FF00D839F52
:10056000F00D749FF00D659FF00D9927729FB00DEF
:10057000E11DF91F639FB00DE11DF91FBD01CF0102
:1005800011240895AA1BBB1B51E107C0AA1FBB1F62
:10059000A617B70710F0A61BB70B881F991F5A950F
:1005A000A9F780959095BC01CD010895A1E21A2E7E
:1005B000AA1BBB1BFD010DC0AA1FBB1FEE1FFF1F07
:1005C000A217B307E407F50720F0A21BB30BE40B57
:1005D000F50B661F771F881F991F1A9469F760959E
:1005E0007095809590959B01AC01BD01CF01089558
:1005F00097FB092E05260ED057FD04D0D7DF0AD071
:10060000001C38F450954095309521953F4F4F4F41
:100610005F4F0895F6F790958095709561957F4F9F
:0A0620008F4F9F4F0895F894FFCF0D
:10062A000D0A53776974636820546573740D0A0060
:0C063A000D0A5377697463683D200000CE
:00000001FF
