:100000000C9434000C9451000C9403020C94510095
:100010000C9451000C9451000C9451000C94D50197
:100020000C9451000C9487010C9451000C945100D5
:100030000C9451000C9451000C9451000C945100FC
:100040000C9451000C9451000C9451000C945100EC
:100050000C9451000C9418020C9451000C94510013
:100060000C9451000C94510011241FBECFEFD4E02A
:10007000DEBFCDBF11E0A0E0B1E0E2E7FAE002C0F0
:1000800005900D92A235B107D9F711E0A2E5B1E0D4
:1000900001C01D92AA36B107E1F70E9450010C94ED
:1000A00037050C940000FB019F01E8944230C4F036
:1000B0004532B4F44A3029F497FB1EF490958195AB
:1000C0009F4F642F77270E94E604805D8A330CF0EF
:1000D000895D8193CB010097A1F716F45DE25193FE
:1000E0001082C9010C947400DC01FC01672F71912E
:1000F0007723E1F7329704C07C916D93708362910E
:10010000AE17BF07C8F308958EE591E060E070E098
:1001100046E950E00E94B2028EEC9FEF60E070E092
:1001200046E950E00E94B20288EE93E00E94B604D5
:1001300080E090E06AE570E046E950E00E94B2029B
:1001400084E690E060E070E046E950E00E94B20290
:1001500080E090E066EA7FEF46E950E00E94B2025C
:100160008AEA90E060E070E046E950E00E94B20266
:1001700080E090E066EA7FEF46E950E00E94B2023C
:1001800084E690E060E070E046E950E00E94B20250
:1001900080E090E066EA7FEF46E950E00E94B2021C
:1001A00086ED91E060E070E046E950E00E94B20226
:1001B0008EEC9FEF60E070E046E950E00E94B202F2
:1001C00088EE93E00E94B60480E090E06AE570E07B
:1001D00046E950E00E94B20284E690E060E070E000
:1001E00046E950E00E94B20280E090E066EA7FEFCC
:1001F00046E950E00E94B2028AEA90E060E070E0D6
:1002000046E950E00E94B20280E090E066EA7FEFAB
:1002100046E950E00E94B20284E690E060E070E0BF
:1002200046E950E00E94B20280E090E066EA7FEF8B
:1002300046E950E00E94B20208950F931F9386E9A9
:1002400066E90E94110480E260E20E941C0404E658
:1002500014E680915701863908F40F5F813A08F05F
:10026000015080915801863908F41F5F813A08F0E7
:10027000115082E090E00E94B604802F612F0E940E
:10028000110480E091E00E9425048091570190E0E4
:100290000E9444048091580190E00E944404D9CF08
:1002A0000E9445020E94B80380E00E94E20386E1BA
:1002B00091E00E9425040E94660490E08830910538
:1002C00059F483E391E00E94250488EB9BE00E94AF
:1002D000B6040E941D010CC0409751F483E491E0E4
:1002E0000E94250488EB9BE00E94B6040E948400D3
:1002F00082E00E94E20384EF91E00E94B60481E074
:100300000E94E20384EF91E00E94B604D4CF1F92D2
:100310000F920FB60F9211242F933F934F935F9339
:100320006F937F938F939F93AF93BF93EF93FF93BD
:100330008091B2008B5D8093B200809163018F5FEA
:100340008093630180916301882399F48091660111
:1003500090916701A0916801B09169010196A11D7A
:10036000B11D8093660190936701A0936801B093DB
:1003700069018091640190916501892B29F0E091D8
:100380006401F09165010995FF91EF91BF91AF91E3
:100390009F918F917F916F915F914F913F912F919D
:1003A0000F900FBE0F901F9018951F920F920FB6CF
:1003B0000F9211248F939F93AF93BF93809163010A
:1003C0008F5F8093630180916301882399F480910A
:1003D000660190916701A0916801B0916901019651
:1003E000A11DB11D8093660190936701A0936801E0
:1003F000B0936901BF91AF919F918F910F900FBE04
:100400000F901F9018951F920F920FB60F92112404
:100410008F939F9381E090E090935A0180935901CC
:10042000E9989F918F910F900FBE0F901F90189594
:100430001F920F920FB60F9211242F933F934F9359
:100440005F936F937F938F939F93AF93BF93EF933C
:10045000FF9380915B0190915C01892B29F0E091E1
:100460005B01F0915C010995FF91EF91BF91AF9114
:100470009F918F917F916F915F914F913F912F91BC
:100480000F900FBE0F901F90189583EC8093B000D3
:1004900081E08093B100E0E7F0E0808181608083BB
:1004A00081E98093B3008FEC8093C4001092C50063
:1004B00088E18093C10086E08093C2008FE384B915
:1004C00084EF8AB981EA8093800082E08093810082
:1004D00086E880937A005F9880E00E94F50381E0CF
:1004E00061E00E94FE0380E060E00E94FE0381E084
:1004F0000E94E20380E260E20E941C0480E060E06F
:100500000E94110410925E0110925D01109265012B
:100510001092640110925C0110925B01789408952E
:100520008530910511F485EC01C0806480937C00D6
:100530006115710519F0862F0E94AE0480917A0032
:10054000806480937A0080917A0084FFFCCF809150
:100550007A00806180937A00209178003091790050
:10056000C90108958F929F92AF92BF92CF92DF926E
:10057000EF92FF920F931F93CF93DF93EC018B01C8
:100580006A0180E060E00E941104209711F19E0151
:10059000D7FF04C0222733272C1B3D0BB901882726
:1005A00077FD8095982F20E137E240E050E00E94EF
:1005B000C70423EA3BE440E050E00E94FA04C9018A
:1005C000DA014C015D01D7FF02C080E124C080E266
:1005D0001FC0980117FF04C022273327201B310BAF
:1005E000B901882777FD8095982F21EB30E040E016
:1005F00050E00E94C70428E631E040E050E00E944D
:10060000FA04C901DA014C015D0117FF03C080E162
:1006100060E202C080E260E10E941C0480E090E0A1
:1006200060E070E00E94D9038C2D6C2D0E941104B3
:100630008601E601EE24FF2437C040915F0150910E
:10064000600120915F013091600180916101909182
:100650006201281B390B1216130654F4C016D1067A
:100660001CF0C53FD1051CF00A50104001C02A966D
:1006700037FF0AC0CC16DD061CF0053F110514F04B
:100680002A9702C0065F1F4FE40EF51E80E090E03F
:1006900060E070E00E94D903802F6C2F0E9411044B
:1006A00081E090E00E94B604C701AA2797FDA095BB
:1006B000BA2F88159905AA05BB0508F4BECF80E0BE
:1006C00060E00E941C0488EC90E00E94B604DF9178
:1006D000CF911F910F91FF90EF90DF90CF90BF903F
:1006E000AF909F908F90089580915D0190915E01F1
:1006F000892BE9F140915201242F30E0909179004B
:10070000F901EB5AFE4F9083442311F080E601C0BB
:1007100081E680937C009C3890F4D901AD5ABE4F9D
:100720008C91813001F5F901EE0FFF1FE15AFE4F68
:10073000808191810196918380831C9214C0913AAB
:1007400090F0D901AD5ABE4F8C91882361F4F90124
:10075000EE0FFF1FE15AFE4F808191810196918338
:10076000808381E08C9381E0482740935201089573
:10077000F89487B18C7F87B95F9A8FEE80937A0067
:1007800081E680937C0081E090E090935E0180930D
:100790005D0184E793E090935C0180935B01789422
:1007A0001092600110925F0110926201109261013B
:1007B00008959093600180935F017093620160934C
:1007C00061010895882311F4289803C0813019F439
:1007D000289A5A980895833019F4289A5A9A0895B5
:1007E000823011F428985A9A08959BB18295880F07
:1007F000880F807C9F7B982B9BB90895982F882326
:1008000011F4662349F05F9887B1836087B988B196
:10081000836088B9992309F44198662309F44098C4
:10082000089590E0909389008093880070E0709321
:100830008B0060938A0008959BB19F7C982B9BB995
:1008400085B18F7C862B85B90895AC0120E098E0B6
:1008500014C09093C1008091C00080648093C00058
:100860008091C00085FFFCCFE093C6008091C0005E
:1008700086FFFCCF2F5F1092C100FA01E20FF11D3D
:10088000E081EE2331F708950F931F93DF93CF9309
:10089000CDB7DEB727970FB6F894DEBF0FBECDBF3A
:1008A0008E010F5F1F4FB8014AE050E00E945300D5
:1008B000C8010E94250427960FB6F894DEBF0FBE2C
:1008C000CDBFCF91DF911F910F910895EF92FF92CD
:1008D0000F931F93CF93DF93C0915D01D0915E0181
:1008E0004B9B02C020E032C010925E0110925D016D
:1008F000539A5B9A84E090E06AE070E00E94900274
:100900007C0153985B9885E00E94AE04D0935E0111
:10091000C0935D0100E010E060E070E48CE990E0DD
:10092000A80197010E941C05CA01B9012EE330E01D
:1009300040E050E00E94C7046855724689409040EC
:1009400020E137E240E050E00E941C05822FDF9159
:10095000CF911F910F91FF90EF90089590916301B7
:10096000980F809163018917E1F70895BC0120E099
:1009700030E009C0409163014C5D809163018417B0
:10098000E1F72F5F3F4F26173707A4F30895629FC3
:10099000D001739FF001829FE00DF11D649FE00D77
:1009A000F11D929FF00D839FF00D749FF00D659FD8
:1009B000F00D9927729FB00DE11DF91F639FB00DD7
:1009C000E11DF91FBD01CF0111240895AA1BBB1B16
:1009D00051E107C0AA1FBB1FA617B70710F0A61B3F
:1009E000B70B881F991F5A95A9F780959095BC0160
:1009F000CD010895A1E21A2EAA1BBB1BFD010DC05B
:100A0000AA1FBB1FEE1FFF1FA217B307E407F507BE
:100A100020F0A21BB30BE40BF50B661F771F881F9A
:100A2000991F1A9469F760957095809590959B0130
:100A3000AC01BD01CF01089597FB092E05260ED00C
:100A400057FD04D0D7DF0AD0001C38F450954095EC
:100A5000309521953F4F4F4F5F4F0895F6F7909592
:100A60008095709561957F4F8F4F9F4F0895F894B3
:020A7000FFCFB6
:100A72000A0D20207370656564204C6566742C52E3
:100A82006967687420000A0D206D6F746F722063AD
:100A9200616C6962726174696F6E2056302E31200A
:100AA2000A0D000A0D207465737466616872742001
:100AB2000A0D000A0D207472656173757265200A51
:020AC2000D0025
:00000001FF
