:1000000012C02CC019C1EAC09DC028C027C026C09C
:1000100025C024C023C022C021C020C024C11EC0CE
:100020001DC01CC01BC011241FBECFE5D4E0DEBF25
:10003000CDBF10E0A0E6B0E0E2E6F5E002C005903A
:100040000D92AA39B107D9F710E0AAE9B0E001C0D2
:100050001D92AB3AB107E1F731D081C2D1CFFB019C
:100060009F01E8944230BCF04532ACF44A3029F4A8
:1000700097FB1EF4909581959F4F642F77275BD255
:10008000805D8A330CF0895D8193CB010097A9F7DD
:1000900016F45DE251931082C90100C0DC01FC013D
:1000A000672F71917723E1F7329704C07C916D93AC
:1000B00070836291AE17BF07C8F30895CF92DF92A5
:1000C000EF92FF920F931F93DF93CF93CDB7DEB7DD
:1000D00028970FB6F894DEBF0FBECDBFF1D080E6F3
:1000E00090E0DDD16E010894C11CD11C85E0E82EA2
:1000F000F12CEC0EFD1E6AD18C018DE690E0CFD183
:10010000C801E0D1C6013CD18BE790E0C8D189811C
:100110009A81D8D189E890E0C2D18B819C81D2D1DB
:10012000C70104D18CE890E0BAD18D819E81CAD1FB
:1001300089E890E0B4D18F819885C4D184EF91E0B3
:10014000E9D1D9CF1F920F920FB60F9211242F939E
:100150003F934F935F936F937F938F939F93AF934F
:10016000BF93EF93FF9384B58B5D84BD8091A40012
:100170008F5F8093A4008091A400882399F48091DC
:10018000A7009091A800A091A900B091AA000196A3
:10019000A11DB11D8093A7009093A800A093A90072
:1001A000B093AA008091A5009091A600892B29F018
:1001B000E091A500F091A6000995FF91EF91BF9104
:1001C000AF919F918F917F916F915F914F913F91EF
:1001D0002F910F900FBE0F901F9018951F920F92A6
:1001E0000FB60F9211248F939F93AF93BF9380917B
:1001F000A4008F5F8093A4008091A400882399F4C9
:100200008091A7009091A800A091A900B091AA00A8
:100210000196A11DB11D8093A7009093A800A09303
:10022000A900B093AA00BF91AF919F918F910F90B9
:100230000FBE0F901F9018951F920F920FB60F923E
:1002400011248F939F9381E090E090939B00809383
:100250009A008BB78F778BBF9F918F910F900FBEB6
:100260000F901F9018951F920F920FB60F921124A6
:100270002F933F934F935F936F937F938F939F93AE
:10028000AF93BF93EF93FF9380919C0090919D005B
:10029000892B29F0E0919C00F0919D000995FF9138
:1002A000EF91BF91AF919F918F917F916F915F91EE
:1002B0004F913F912F910F900FBE0F901F90189567
:1002C00089E785BD89B7806489BF81E983BD10BC9A
:1002D0008FEC89B988E18AB996E890BD8FE387BB36
:1002E00084EF81BB81EA8FBD82E08EBD96B997987D
:1002F00080E0A9D081E061E0AFD080E060E0ACD0E8
:1003000081E08ED080E260E2C1D080E060E0B7D0D2
:1003100010929F0010929E001092A6001092A500CD
:1003200010929D0010929C0078940895EF92FF9295
:100330000F931F938C01E0909E00F0909F0010920D
:100340009F0010929E0084B38C7F84BB979A81E0BB
:1003500090E060E070E050D0F8019183808380E00D
:1003600090E060E070E048D0F80193838283F092DF
:100370009F00E0929E001F910F91FF90EF900895D3
:10038000EF92FF920F931F938C01E0909E00F090EC
:100390009F0010929F0010929E0083E090E060E02A
:1003A00070E02AD0F8019183808382E090E060E0E1
:1003B00070E022D0F80193838283F0929F00E09254
:1003C0009E001F910F91FF90EF9008950F931F9340
:1003D00000919E0010919F0010929F0010929E002D
:1003E00085E090E06AE070E007D010939F000093F2
:1003F0009E001F910F9108958530910511F485ECB1
:1004000001C0806487B96115710511F0862F7AD01B
:10041000369A349BFECF349A24B135B1C901089580
:10042000882311F4C09803C0813019F4C09A9298BF
:100430000895833019F4C09A929A0895823011F485
:10044000C098929A089592B38295880F880F807C05
:100450009F7B982B92BB0895982F882311F46623D5
:1004600049F0979884B3836084BB85B3836085BB70
:10047000992309F4A998662309F4A898089590E0AF
:100480009BBD8ABD70E079BD68BD089592B39F7C25
:10049000982B92BB88B38F7C862B88BB089520E075
:1004A00038E009C03AB95E9A5D9BFECFECB95E9B1D
:1004B000FECF2F5F1AB8FC01E20FF11DE081EE23A1
:1004C00089F708950F931F93DF93CF93CDB7DEB7CE
:1004D00027970FB6F894DEBF0FBECDBF8E010F5F1A
:1004E0001F4FB8014AE050E0BADDC801D8DF2796B7
:1004F0000FB6F894DEBF0FBECDBFCF91DF911F9135
:100500000F9108959091A400980F8091A4008917ED
:10051000E1F70895BC0120E030E009C04091A4005B
:100520004C5D8091A4008417E1F72F5F3F4F2617A1
:100530003707A4F30895AA1BBB1B51E107C0AA1FEC
:10054000BB1FA617B70710F0A61BB70B881F991F74
:100550005A95A9F780959095BC01CD010895F8941E
:02056000FFCFCB
:100562000D0A41444320546573740D0A000D0A427A
:1005720061747465727920203D20000D0A4C696E09
:100582006520202020203D2000202C000D0A4F64F1
:0A0592006F6D65747279203D200042
:00000001FF
