:100000000C9434000C9451000C9454010C94510045
:100010000C9451000C9451000C9451000C94260146
:100020000C9451000C94D8000C9451000C94510085
:100030000C9451000C9451000C9451000C945100FC
:100040000C9451000C9451000C9451000C945100EC
:100050000C9451000C9469010C9451000C945100C3
:100060000C9451000C94510011241FBECFEFD4E02A
:10007000DEBFCDBF11E0A0E0B1E0E2E4F6E002C0F7
:1000800005900D92AA33B107D9F711E0AAE3B1E0C8
:1000900001C01D92AB34B107E1F70E9484000C94BB
:1000A0001F030C940000FB019F01E8944230C4F050
:1000B0004532B4F44A3029F497FB1EF490958195AB
:1000C0009F4F642F77270E940B03805D8A330CF0CB
:1000D000895D8193CB010097A1F716F45DE25193FE
:1000E0001082C9010C947400DC01FC01672F71912E
:1000F0007723E1F7329704C07C916D93708362910E
:10010000AE17BF07C8F30895CF92DF92EF92FF9228
:100110000F931F93DF93CF93CDB7DEB728970FB61A
:10012000F894DEBF0FBECDBF0E94960180E091E043
:100130000E94B1026E010894C11CD11C85E0E82E1A
:10014000F12CEC0EFD1E0E9435028C018DE091E039
:100150000E94B102C8010E94D002C6010E940D0295
:100160008BE191E00E94B10289819A810E94D002C4
:1001700089E291E00E94B1028B819C810E94D002B1
:10018000C7010E94E1018CE291E00E94B1028D81E1
:100190009E810E94D00289E291E00E94B1028F818B
:1001A00098850E94D00284EF91E00E94FA02CBCFA2
:1001B0001F920F920FB60F9211242F933F934F93DC
:1001C0005F936F937F938F939F93AF93BF93EF93BF
:1001D000FF938091B2008B5D8093B20080914401C7
:1001E0008F5F8093440180914401882399F480912A
:1001F000470190914801A0914901B0914A010196AF
:10020000A11DB11D8093470190934801A09349011E
:10021000B0934A018091450190914601892B29F0C4
:10022000E0914501F09146010995FF91EF91BF9151
:10023000AF919F918F917F916F915F914F913F917E
:100240002F910F900FBE0F901F9018951F920F9235
:100250000FB60F9211248F939F93AF93BF9380910A
:1002600044018F5F8093440180914401882399F475
:100270008091470190914801A0914901B0914A01B4
:100280000196A11DB11D8093470190934801A09351
:100290004901B0934A01BF91AF919F918F910F9007
:1002A0000FBE0F901F9018951F920F920FB60F92CE
:1002B00011248F939F9381E090E090933B01809372
:1002C0003A01E9989F918F910F900FBE0F901F9068
:1002D00018951F920F920FB60F9211242F933F93F0
:1002E0004F935F936F937F938F939F93AF93BF933E
:1002F000EF93FF9380913C0190913D01892B29F070
:10030000E0913C01F0913D010995FF91EF91BF9182
:10031000AF919F918F917F916F915F914F913F919D
:100320002F910F900FBE0F901F90189583EC809324
:10033000B00081E08093B100E0E7F0E0808181606F
:10034000808381E98093B3008FEC8093C400109286
:10035000C50088E18093C10086E08093C2008FE3EE
:1003600084B984EF8AB981EA8093800082E0809327
:10037000810086E880937A005F9880E00E94810285
:1003800081E061E00E948A0280E060E00E948A02CF
:1003900081E00E946E0280E260E20E94A80280E09A
:1003A00060E00E949D0210923F0110923E01109267
:1003B00046011092450110923D0110923C01789443
:1003C0000895EF92FF920F931F938C01E0903E01EE
:1003D000F0903F0110923F0110923E0187B18C7F57
:1003E00087B95F9A81E090E060E070E00E944C0283
:1003F000F8019183808380E090E060E070E00E94EB
:100400004C02F80193838283F0923F01E0923E0117
:100410001F910F91FF90EF900895EF92FF920F932D
:100420001F938C01E0903E01F0903F0110923F013C
:1004300010923E0183E090E060E070E00E944C0288
:10044000F8019183808382E090E060E070E00E9498
:100450004C02F80193838283F0923F01E0923E01C7
:100460001F910F91FF90EF9008950F931F930091AC
:100470003E0110913F0110923F0110923E0185E034
:1004800090E06AE070E00E944C0210933F010093FC
:100490003E011F910F9108958530910511F485EC6F
:1004A00001C0806480937C006115710519F0862F6E
:1004B0000E94F20280917A00806480937A00809199
:1004C0007A0084FFFCCF80917A00806180937A006B
:1004D0002091780030917900C9010895882311F4A2
:1004E000289803C0813019F4289A5A9808958330C7
:1004F00019F4289A5A9A0895823011F428985A9A31
:1005000008959BB18295880F880F807C9F7B982BE4
:100510009BB90895982F882311F4662349F05F98BA
:1005200087B1836087B988B1836088B9992309F45A
:100530004198662309F44098089590E090938900CB
:100540008093880070E070938B0060938A00089518
:100550009BB19F7C982B9BB985B18F7C862B85B9ED
:100560000895AC0120E098E014C09093C100809100
:10057000C00080648093C0008091C00085FFFCCFE4
:10058000E093C6008091C00086FFFCCF2F5F1092E1
:10059000C100FA01E20FF11DE081EE2331F7089569
:1005A0000F931F93DF93CF93CDB7DEB727970FB687
:1005B000F894DEBF0FBECDBF8E010F5F1F4FB80195
:1005C0004AE050E00E945300C8010E94B102279601
:1005D0000FB6F894DEBF0FBECDBFCF91DF911F9154
:1005E0000F91089590914401980F809144018917CB
:1005F000E1F70895BC0120E030E009C040914401DA
:100600004C5D809144018417E1F72F5F3F4F26171F
:100610003707A4F30895AA1BBB1B51E107C0AA1F0B
:10062000BB1FA617B70710F0A61BB70B881F991F93
:100630005A95A9F780959095BC01CD010895F8943D
:02064000FFCFEA
:100642000D0A41444320546573740D0A000D0A4299
:1006520061747465727920203D20000D0A4C696E28
:100662006520202020203D2000202C000D0A4F6410
:0A0672006F6D65747279203D200061
:00000001FF
