:1000000012C02CC002C1D3C086C028C027C026C0E1
:1000100025C024C023C022C021C020C00DC11EC0E5
:100020001DC01CC01BC011241FBECFE5D4E0DEBF25
:10003000CDBF10E0A0E6B0E0E6E6F5E002C0059036
:100040000D92A837B107D9F710E0A8E7B0E001C0DA
:100050001D92A938B107E1F731D083C2D1CFFB019E
:100060009F01E8944230BCF04532ACF44A3029F4A8
:1000700097FB1EF4909581959F4F642F772720D290
:10008000805D8A330CF0895D8193CB010097A9F7DD
:1000900016F45DE251931082C90100C0DC01FC013D
:1000A000672F71917723E1F7329704C07C916D93AC
:1000B00070836291AE17BF07C8F30895EF92FF9265
:1000C0001F93DF93CF93CDB7DEB760970FB6F89449
:1000D000DEBF0FBECDBFDDD080E690E063D17E01F4
:1000E0000894E11CF11C71D1182F6FD1112379F004
:1000F000882369F0181759F4812F90E0B7014AE07E
:1001000050E0ADDFC7014ED184E790E04BD184EFE2
:1001100091E0A6D1E8CF1F920F920FB60F92112453
:100120002F933F934F935F936F937F938F939F93FF
:10013000AF93BF93EF93FF9384B58B5D84BD8091A4
:1001400082008F5F8093820080918200882399F4DF
:100150008091850090918600A0918700B0918800E1
:100160000196A11DB11D8093850090938600A093F8
:100170008700B09388008091830090918400892B40
:1001800029F0E0918300F09184000995FF91EF91AF
:10019000BF91AF919F918F917F916F915F914F919F
:1001A0003F912F910F900FBE0F901F9018951F92A7
:1001B0000F920FB60F9211248F939F93AF93BF931B
:1001C000809182008F5F80938200809182008823DB
:1001D00099F48091850090918600A0918700B0915C
:1001E00088000196A11DB11D809385009093860023
:1001F000A0938700B0938800BF91AF919F918F919A
:100200000F900FBE0F901F9018951F920F920FB670
:100210000F9211248F939F9381E090E09093790047
:10022000809378008BB78F778BBF9F918F910F90C2
:100230000FBE0F901F9018951F920F920FB60F923E
:1002400011242F933F934F935F936F937F938F93DB
:100250009F93AF93BF93EF93FF9380917A00909118
:100260007B00892B29F0E0917A00F0917B000995C1
:10027000FF91EF91BF91AF919F918F917F916F917E
:100280005F914F913F912F910F900FBE0F901F9054
:10029000189589E785BD89B7806489BF81E983BDE9
:1002A00010BC8FEC89B988E18AB996E890BD8FE3DC
:1002B00087BB84EF81BB81EA8FBD82E08EBD96B99A
:1002C000979880E043D081E061E049D080E060E031
:1002D00046D081E028D080E260E25BD080E060E040
:1002E00051D010927D0010927C00109284001092E8
:1002F000830010927B0010927A00789408958530E4
:10030000910511F485EC01C0806487B96115710510
:1003100011F0862F9DD0369A349BFECF349A24B1AB
:1003200035B1C9010895882311F4C09803C0813004
:1003300019F4C09A92980895833019F4C09A929A49
:100340000895823011F4C098929A089592B38295DC
:10035000880F880F807C9F7B982B92BB0895982FE5
:10036000882311F4662349F0979884B3836084BB93
:1003700085B3836085BB992309F4A998662309F4A2
:10038000A898089590E09BBD8ABD70E079BD68BDD6
:10039000089592B39F7C982B92BB88B38F7C862B59
:1003A00088BB089520E038E009C03AB95E9A5D9BA9
:1003B000FECFECB95E9BFECF2F5F1AB8FC01E20FB7
:1003C000F11DE081EE2389F70895EF92FF920F93DC
:1003D0001F93CF93DF93C0917C00D0917D00839BCE
:1003E00002C020E02DC010927D0010927C008B9AFC
:1003F000939A84E090E06AE070E081DF7C018B9862
:10040000939885E025D0D0937D00C0937C0000E0D8
:1004100010E060E070E48CE990E0A801970186D0DC
:10042000CA01B9012EE330E040E050E02AD068551F
:1004300072468940904020E137E240E050E076D0BB
:10044000822FDF91CF911F910F91FF90EF90089530
:1004500090918200980F809182008917E1F70895AA
:10046000BC0120E030E009C0409182004C5D8091E9
:1004700082008417E1F72F5F3F4F26173707A4F359
:100480000895629FD001739FF001829FE00DF11DDE
:10049000649FE00DF11D929FF00D839FF00D749FFE
:1004A000F00D659FF00D9927729FB00DE11DF91FAA
:1004B000639FB00DE11DF91FBD01CF011124089507
:1004C000AA1BBB1B51E107C0AA1FBB1FA617B7077A
:1004D00010F0A61BB70B881F991F5A95A9F7809596
:1004E0009095BC01CD010895A1E21A2EAA1BBB1B59
:1004F000FD010DC0AA1FBB1FEE1FFF1FA217B307F0
:10050000E407F50720F0A21BB30BE40BF50B661F05
:10051000771F881F991F1A9469F7609570958095C9
:1005200090959B01AC01BD01CF01089597FB092E69
:1005300005260ED057FD04D0D7DF0AD0001C38F4B2
:1005400050954095309521953F4F4F4F5F4F0895FF
:10055000F6F790958095709561957F4F8F4F9F4FDF
:060560000895F894FFCF9E
:100566000D0A5461737473656E736F7220546573EC
:08057600740D0A000D0A0000DB
:00000001FF
