:100000000C9434000C9451000C9435010C94510064
:100010000C9451000C9451000C9451000C94070165
:100020000C9451000C94B9000C9451000C945100A4
:100030000C9451000C9451000C9451000C945100FC
:100040000C9451000C9451000C9451000C945100EC
:100050000C9451000C944A010C9451000C945100E2
:100060000C9451000C94510011241FBECFEFD4E02A
:10007000DEBFCDBF11E0A0E0B1E0E2E3F6E002C0F8
:1000800005900D92A831B107D9F711E0A8E1B1E0D0
:1000900001C01D92A932B107E1F70E9484000C94BF
:1000A00017030C940000FB019F01E8944230C4F058
:1000B0004532B4F44A3029F497FB1EF490958195AB
:1000C0009F4F642F77270E94C602805D8A330CF011
:1000D000895D8193CB010097A1F716F45DE25193FE
:1000E0001082C9010C947400DC01FC01672F71912E
:1000F0007723E1F7329704C07C916D93708362910E
:10010000AE17BF07C8F30895EF92FF921F93DF93D6
:10011000CF93CDB7DEB760970FB6F894DEBF0FBEB2
:10012000CDBF0E94770180E091E00E9427027E010E
:100130000894E11CF11C0E944602182F0E944602FE
:10014000112391F0882381F0181771F4812F90E02A
:10015000B7014AE050E00E945300C7010E94270205
:1001600084E191E00E94270284EF91E00E949602D0
:10017000E2CF1F920F920FB60F9211242F933F934D
:100180004F935F936F937F938F939F93AF93BF939F
:10019000EF93FF938091B2008B5D8093B2008091CA
:1001A00022018F5F8093220180912201882399F49C
:1001B0008091250190912601A0912701B0912801FD
:1001C0000196A11DB11D8093250190932601A09356
:1001D0002701B09328018091230190912401892B5C
:1001E00029F0E0912301F09124010995FF91EF910D
:1001F000BF91AF919F918F917F916F915F914F913F
:100200003F912F910F900FBE0F901F9018951F9246
:100210000F920FB60F9211248F939F93AF93BF93BA
:10022000809122018F5F8093220180912201882397
:1002300099F48091250190912601A0912701B09118
:1002400028010196A11DB11D8093250190932601DF
:10025000A0932701B0932801BF91AF919F918F91F7
:100260000F900FBE0F901F9018951F920F920FB610
:100270000F9211248F939F9381E090E09093190146
:1002800080931801E9989F918F910F900FBE0F9066
:100290001F9018951F920F920FB60F9211242F9353
:1002A0003F934F935F936F937F938F939F93AF93FE
:1002B000BF93EF93FF9380911A0190911B01892BBB
:1002C00029F0E0911A01F0911B010995FF91EF913E
:1002D000BF91AF919F918F917F916F915F914F915E
:1002E0003F912F910F900FBE0F901F90189583ECA8
:1002F0008093B00081E08093B100E0E7F0E080817E
:100300008160808381E98093B3008FEC8093C40087
:100310001092C50088E18093C10086E08093C200FE
:100320008FE384B984EF8AB981EA8093800082E008
:100330008093810086E880937A005F9880E00E9435
:10034000F70181E061E00E94000280E060E00E942D
:10035000000281E00E94E40180E260E20E941E024D
:1003600080E060E00E94130210921D0110921C01B7
:10037000109224011092230110921B0110921A0175
:10038000789408958530910511F485EC01C080645E
:1003900080937C006115710519F0862F0E948E02F2
:1003A00080917A00806480937A0080917A0084FF43
:1003B000FCCF80917A00806180937A002091780050
:1003C00030917900C9010895882311F4289803C059
:1003D000813019F4289A5A980895833019F4289A8C
:1003E0005A9A0895823011F428985A9A08959BB128
:1003F0008295880F880F807C9F7B982B9BB90895EE
:10040000982F882311F4662349F05F9887B18360A1
:1004100087B988B1836088B9992309F44198662324
:1004200009F44098089590E09093890080938800A3
:1004300070E070938B0060938A0008959BB19F7C5D
:10044000982B9BB985B18F7C862B85B90895AC011B
:1004500020E098E014C09093C1008091C0008064B7
:100460008093C0008091C00085FFFCCFE093C60060
:100470008091C00086FFFCCF2F5F1092C100FA016F
:10048000E20FF11DE081EE2331F70895EF92FF9224
:100490000F931F93CF93DF93C0911C01D0911D0147
:1004A0004B9B02C020E032C010921D0110921C0133
:1004B000539A5B9A84E090E06AE070E00E94C20187
:1004C0007C0153985B9885E00E948E02D0931D01B9
:1004D000C0931C0100E010E060E070E48CE990E063
:1004E000A80197010E94FC02CA01B9012EE330E085
:1004F00040E050E00E94A702685572468940904053
:1005000020E137E240E050E00E94FC02822FDF91C0
:10051000CF911F910F91FF90EF900895909122013C
:10052000980F809122018917E1F70895BC0120E01E
:1005300030E009C0409122014C5D80912201841776
:10054000E1F72F5F3F4F26173707A4F30895629F07
:10055000D001739FF001829FE00DF11D649FE00DBB
:10056000F11D929FF00D839FF00D749FF00D659F1C
:10057000F00D9927729FB00DE11DF91F639FB00D1B
:10058000E11DF91FBD01CF0111240895AA1BBB1B5A
:1005900051E107C0AA1FBB1FA617B70710F0A61B83
:1005A000B70B881F991F5A95A9F780959095BC01A4
:1005B000CD010895A1E21A2EAA1BBB1BFD010DC09F
:1005C000AA1FBB1FEE1FFF1FA217B307E407F50703
:1005D00020F0A21BB30BE40BF50B661F771F881FDF
:1005E000991F1A9469F760957095809590959B0175
:1005F000AC01BD01CF01089597FB092E05260ED051
:1006000057FD04D0D7DF0AD0001C38F45095409530
:10061000309521953F4F4F4F5F4F0895F6F79095D6
:100620008095709561957F4F8F4F9F4F0895F894F7
:02063000FFCFFA
:100632000D0A5461737473656E736F72205465731F
:08064200740D0A000D0A00000E
:00000001FF
