:1000000012C02CC0EDC0BEC071C028C027C026C021
:1000100025C024C023C022C021C020C0F8C01EC0FB
:100020001DC01CC01BC011241FBECFE5D4E0DEBF25
:10003000CDBF10E0A0E6B0E0E0E7F6E002C005903A
:100040000D92A039B107D9F710E0A0E9B0E001C0E6
:100050001D92A83AB107E1F731D008C3D1CFFB0117
:100060009F01E8944230BCF04532ACF44A3029F4A8
:1000700097FB1EF4909581959F4F642F7727A5D20B
:10008000805D8A330CF0895D8193CB010097A9F7DD
:1000900016F45DE251931082C90100C0DC01FC013D
:1000A000672F71917723E1F7329704C07C916D93AC
:1000B00070836291AE17BF07C8F30895D5D080E66C
:1000C00090E0A8D188EE93E0E0D11ED29093910009
:1000D000809390008CE790E09DD184EF91E0D5D1A2
:1000E0008091900090919100A8D1EFCF1F920F9234
:1000F0000FB60F9211242F933F934F935F936F93FB
:100100007F938F939F93AF93BF93EF93FF9384B5A8
:100110008B5D84BD8091A1008F5F8093A100809151
:10012000A100882399F48091A4009091A500A0914A
:10013000A600B091A7000196A11DB11D8093A40057
:100140009093A500A093A600B093A7008091A20071
:100150009091A300892B29F0E091A200F091A300D7
:100160000995FF91EF91BF91AF919F918F917F91F1
:100170006F915F914F913F912F910F900FBE0F9014
:100180001F9018951F920F920FB60F9211248F9304
:100190009F93AF93BF938091A1008F5F8093A10045
:1001A0008091A100882399F48091A4009091A500EA
:1001B000A091A600B091A7000196A11DB11D80934A
:1001C000A4009093A500A093A600B093A700BF91B0
:1001D000AF919F918F910F900FBE0F901F90189528
:1001E0001F920F920FB60F9211248F939F9381E06D
:1001F00090E090939800809397008BB78F778BBF98
:100200009F918F910F900FBE0F901F9018951F9286
:100210000F920FB60F9211242F933F934F935F933A
:100220006F937F938F939F93AF93BF93EF93FF93BE
:100230008091990090919A00892B29F0E091990082
:10024000F0919A000995FF91EF91BF91AF919F9125
:100250008F917F916F915F914F913F912F910F906F
:100260000FBE0F901F90189589E785BD89B78064F0
:1002700089BF81E983BD10BC8FEC89B988E18AB957
:1002800096E890BD8FE387BB84EF81BB81EA8FBD89
:1002900082E08EBD96B9979880E090D081E061E0D1
:1002A00096D080E060E093D081E075D080E260E29B
:1002B000A8D080E060E09ED010929C0010929B003D
:1002C0001092A3001092A20010929A00109299002E
:1002D0007894089580919B0090919C00892BD9F18E
:1002E00040919200242F30E095B1F901EB56FF4F79
:1002F0009083442311F080E601C081E687B99C38E1
:1003000090F4D901AD56BF4F8C91813001F5F901C0
:10031000EE0FFF1FE356FF4F80819181019691837D
:1003200080831C9214C0913A90F0D901AD56BF4F12
:100330008C91882361F4F901EE0FFF1FE356FF4F04
:100340008081918101969183808381E08C9381E00B
:100350004827409392000895F89484B38C7F84BB1F
:10036000979A8FEE86B981E687B981E090E0909305
:100370009C0080939B008AE691E090939A00809382
:100380009900789410929E0010929D001092A00007
:1003900010929F000895882311F4C09803C0813003
:1003A00019F4C09A92980895833019F4C09A929AD9
:1003B0000895823011F4C098929A089592B382956C
:1003C000880F880F807C9F7B982B92BB0895982F75
:1003D000882311F4662349F0979884B3836084BB23
:1003E00085B3836085BB992309F4A998662309F432
:1003F000A898089590E09BBD8ABD70E079BD68BD66
:10040000089592B39F7C982B92BB88B38F7C862BE8
:1004100088BB089520E038E009C03AB95E9A5D9B38
:10042000FECFECB95E9BFECF2F5F1AB8FC01E20F46
:10043000F11DE081EE2389F708950F931F93DF9359
:10044000CF93CDB7DEB727970FB6F894DEBF0FBEB8
:10045000CDBF8E010F5F1F4FB8014AE050E0FFDDB6
:10046000C801D8DF27960FB6F894DEBF0FBECDBF08
:10047000CF91DF911F910F9108959091A100980F56
:100480008091A1008917E1F70895BC0120E030E0D8
:1004900009C04091A1004C5D8091A1008417E1F753
:1004A0002F5F3F4F26173707A4F30895F89489E08C
:1004B00085BD89B78F7B89BF89B7806889BF84E68E
:1004C00083BD16B8419A83E087B980B7886080BF42
:1004D0008E9878940895F89489E785BD89B78F77C9
:1004E00089BF89B7806489BF81E983BD86E886B901
:1004F000419880919B0090919C00892B09F02CDF02
:10050000789481E0BADF0895CF93DF93CFDF109224
:10051000A1009EE605C08091A100292F281B23BDC4
:100520008091A1008431B9F789E085BD84E683BD5F
:10053000C0E0D0E081E0A1DF2196449B1CC0449A3A
:10054000CADFBE0180E090E028EE33E040E050E0FA
:100550001DD028E430E040E050E06DD0CA01B90180
:100560002CEA30E040E050E011D020E137E240E0FA
:1005700050E061D007C0449A8DE0CD3AD807D1F65B
:100580002FEF3FEFC901DF91CF910895629FD00116
:10059000739FF001829FE00DF11D649FE00DF11D3E
:1005A000929FF00D839FF00D749FF00D659FF00DED
:1005B0009927729FB00DE11DF91F639FB00DE11DDA
:1005C000F91FBD01CF0111240895AA1BBB1B51E1E6
:1005D00007C0AA1FBB1FA617B70710F0A61BB70BB3
:1005E000881F991F5A95A9F780959095BC01CD0158
:1005F0000895A1E21A2EAA1BBB1BFD010DC0AA1F64
:10060000BB1FEE1FFF1FA217B307E407F50720F07B
:10061000A21BB30BE40BF50B661F771F881F991FF6
:100620001A9469F760957095809590959B01AC013F
:10063000BD01CF01089597FB092E05260ED057FD69
:1006400004D0D7DF0AD0001C38F45095409530957F
:1006500021953F4F4F4F5F4F0895F6F79095809546
:10066000709561957F4F8F4F9F4F0895F894FFCFFE
:100670000D0A20202D2D2D20756C747261736F6E04
:1006800069632074657374202D2D2D000D0A20647C
:10069000697374616E7A20696E20636D3A20000080
:00000001FF
