:100000000C9434000C9451000C941F010C9451007A
:100010000C9451000C9451000C9451000C94F1007C
:100020000C9451000C94A3000C9451000C945100BA
:100030000C9451000C9451000C9451000C945100FC
:100040000C9451000C9451000C9451000C945100EC
:100050000C9451000C9434010C9451000C945100F8
:100060000C9451000C94510011241FBECFEFD4E02A
:10007000DEBFCDBF11E0A0E0B1E0EAE7F7E002C0EB
:1000800005900D92A033B107D9F711E0A0E3B1E0DC
:1000900001C01D92A834B107E1F70E9484000C94BE
:1000A000BB030C940000FB019F01E8944230C4F0B4
:1000B0004532B4F44A3029F497FB1EF490958195AB
:1000C0009F4F642F77270E946A03805D8A330CF06C
:1000D000895D8193CB010097A1F716F45DE25193FE
:1000E0001082C9010C947400DC01FC01672F71912E
:1000F0007723E1F7329704C07C916D93708362910E
:10010000AE17BF07C8F308950E94610180E091E037
:100110000E94540288EE93E00E949D020E94F70222
:1001200090933101809330018CE191E00E94540260
:1001300084EF91E00E949D02809130019091310105
:100140000E947302EBCF1F920F920FB60F921124F1
:100150002F933F934F935F936F937F938F939F93CF
:10016000AF93BF93EF93FF938091B2008B5D809329
:10017000B200809141018F5F8093410180914101E4
:10018000882399F48091440190914501A091460102
:10019000B09147010196A11DB11D80934401909338
:1001A0004501A0934601B09347018091420190918F
:1001B0004301892B29F0E0914201F0914301099517
:1001C000FF91EF91BF91AF919F918F917F916F912F
:1001D0005F914F913F912F910F900FBE0F901F9005
:1001E00018951F920F920FB60F9211248F939F9321
:1001F000AF93BF93809141018F5F809341018091C4
:100200004101882399F48091440190914501A09186
:100210004601B09147010196A11DB11D8093440193
:1002200090934501A0934601B0934701BF91AF91D0
:100230009F918F910F900FBE0F901F9018951F9256
:100240000F920FB60F9211248F939F9381E090E04D
:100250009093380180933701E9989F918F910F9087
:100260000FBE0F901F9018951F920F920FB60F920E
:1002700011242F933F934F935F936F937F938F93AB
:100280009F93AF93BF93EF93FF9380913901909128
:100290003A01892B29F0E0913901F0913A01099551
:1002A000FF91EF91BF91AF919F918F917F916F914E
:1002B0005F914F913F912F910F900FBE0F901F9024
:1002C000189583EC8093B00081E08093B100E0E763
:1002D000F0E080818160808381E98093B3008FECBE
:1002E0008093C4001092C50088E18093C10086E02D
:1002F0008093C2008FE384B984EF8AB981EA809346
:10030000800082E08093810086E880937A005F9885
:1003100080E00E94240281E061E00E942D0280E0E2
:1003200060E00E942D0281E00E94110280E260E202
:100330000E944B0280E060E00E94400210923C016B
:1003400010923B01109243011092420110923A0127
:10035000109239017894089580913B0190913C016D
:10036000892BE9F140913201242F30E090917900FE
:10037000F901EB5CFE4F9083442311F080E601C04D
:1003800081E680937C009C3890F4D901AD5CBE4F2F
:100390008C91813001F5F901EE0FFF1FE35CFE4FF8
:1003A000808191810196918380831C9214C0913A3F
:1003B00090F0D901AD5CBE4F8C91882361F4F901B6
:1003C000EE0FFF1FE35CFE4F8081918101969183C8
:1003D000808381E08C9381E0482740933201089527
:1003E000F89487B18C7F87B95F9A8FEE80937A00FB
:1003F00081E680937C0081E090E090933C018093C3
:100400003B018CEA91E090933A0180933901789412
:1004100010923E0110923D011092400110923F0156
:100420000895882311F4289803C0813019F4289A7C
:100430005A980895833019F4289A5A9A0895823068
:1004400011F428985A9A08959BB18295880F880FC5
:10045000807C9F7B982B9BB90895982F882311F45B
:10046000662349F05F9887B1836087B988B183605C
:1004700088B9992309F44198662309F440980895AE
:1004800090E0909389008093880070E070938B00D7
:1004900060938A0008959BB19F7C982B9BB985B18E
:1004A0008F7C862B85B90895AC0120E098E014C0BC
:1004B0009093C1008091C00080648093C0008091BF
:1004C000C00085FFFCCFE093C6008091C00086FF8E
:1004D000FCCF2F5F1092C100FA01E20FF11DE08105
:1004E000EE2331F708950F931F93DF93CF93CDB78A
:1004F000DEB727970FB6F894DEBF0FBECDBF8E01D3
:100500000F5F1F4FB8014AE050E00E945300C8013E
:100510000E94540227960FB6F894DEBF0FBECDBFDF
:10052000CF91DF911F910F91089590914101980F04
:10053000809141018917E1F70895BC0120E030E086
:1005400009C0409141014C5D809141018417E1F760
:100550002F5F3F4F26173707A4F30895F89482E0E2
:100560008093B00081E08093B100E0E7F0E080810B
:100570008E7F808380818260808384E68093B30055
:1005800010927A0080B7826080BF83E080937C0005
:10059000EBE7F0E08081806480835698789408953A
:1005A000F89483EC8093B00081E08093B100809157
:1005B00070008D7F809370008091700081608093C7
:1005C000700081E98093B30086E880937A0080B759
:1005D0008D7F80BF80913B0190913C01892B11F070
:1005E0000E94F001789481E00E9495020895CF93D3
:1005F000DF930E94AE02109241019EE606C08091F8
:100600004101292F281B2093B3008091410184319F
:10061000B1F782E08093B00081E08093B10084E67E
:100620008093B300C0E0D0E081E00E949502219663
:1006300000B604FE23C080B7806180BF0E94D00254
:10064000BE0180E090E028EE33E040E050E00E9400
:100650004B0328E430E040E050E00E94A003CA01D0
:10066000B9012CEA30E040E050E00E944B0320E169
:1006700037E240E050E00E94A00309C080B78061EB
:1006800080BF8DE0CD3AD80779F62FEF3FEFC90153
:10069000DF91CF910895629FD001739FF001829FF7
:1006A000E00DF11D649FE00DF11D929FF00D839F01
:1006B000F00D749FF00D659FF00D9927729FB00D9E
:1006C000E11DF91F639FB00DE11DF91FBD01CF01B1
:1006D00011240895AA1BBB1B51E107C0AA1FBB1F11
:1006E000A617B70710F0A61BB70B881F991F5A95BE
:1006F000A9F780959095BC01CD010895A1E21A2E2D
:10070000AA1BBB1BFD010DC0AA1FBB1FEE1FFF1FB5
:10071000A217B307E407F50720F0A21BB30BE40B05
:10072000F50B661F771F881F991F1A9469F760954C
:100730007095809590959B01AC01BD01CF01089506
:1007400097FB092E05260ED057FD04D0D7DF0AD01F
:10075000001C38F450954095309521953F4F4F4FF0
:100760005F4F0895F6F790958095709561957F4F4E
:0A0770008F4F9F4F0895F894FFCFBC
:10077A000D0A20202D2D2D20756C747261736F6EF9
:10078A0069632074657374202D2D2D000D0A206471
:10079A00697374616E7A20696E20636D3A20000075
:00000001FF
